:020000040800F2
:100000005820002009C30008D18C0008D38C0008B8
:10001000D78C0008DB8C0008DF8C00080000000093
:10002000000000000000000000000000E38C000859
:10003000E58C00080000000077E40008A124000817
:1000400023C3000823C3000823C3000823C30008F8
:1000500023C3000823C30008538E00085B8E0008EA
:10006000638E00086B8E0008738E000823C300089F
:1000700023C3000823C3000823C3000823C30008C8
:1000800023C3000823C3000823C3000823C30008B8
:100090007B1F00082B20000823C300087B8E00086C
:1000A00023C3000823C3000823C3000823C3000898
:1000B00023C30008D9840008018E000823C3000868
:1000C00023C3000823C3000823C3000823C3000878
:1000D00023C300080D8D000823C30008E78C000827
:1000E000D18E000823C3000823C3000823C30008DF
:1000F0000985000823C3000823C3000823C30008A0
:1001000023C3000823C3000823C3000823C3000837
:1001100023C3000823C3000823C3000823C3000827
:1001200023C3000823C3000823C3000823C3000817
:1001300000F002F800F0B4F80AA090E8000C824445
:100140008344AAF10107DA4501D100F0A9F8AFF222
:10015000090EBAE80F0013F0010F18BFFB1A43F0A5
:1001600001031847542C0100742C01000A444FF07D
:10017000000C10F8013B13F0070408BF10F8014B06
:100180001D1108BF10F8015B641E05D010F8016B4B
:10019000641E01F8016BF9D113F0080F1EBF10F8AF
:1001A000014BAD1C0C1B09D16D1E58BF01F801CBD2
:1001B000FAD505E014F8016B01F8016B6D1EF9D555
:1001C0009142D6D37047000000230024002500266A
:1001D000103A28BF78C1FBD8520728BF30C148BFAA
:1001E0000B6070476E290EF05C8470290EF0B487A6
:1001F000662911F00686652911F00386672911F03A
:100200000086612911F0FF8503681B0A28BF41F0B1
:10021000800169290EF0E08164290EF0DD817529E5
:100220000EF0DA816F290EF03F8778290EF0808773
:10023000E9290EF0D786E4290EF0D486F5290EF0D0
:10024000D186EF290EF03C87F8290EF07F870368EE
:10025000DB0928BF41F0800163290FF0BF817329BA
:100260000FF0C481E3290FF0CF81F3290FF0D4817F
:10027000002070471FB59DE803000EF011FB0EF043
:100280007BFF04000020002110F016FC401C606081
:100290000020002110F0FAFBE0601FBD10B510BD7A
:1002A0000FF058FA1146FFF7E5FF08F0BFFC0FF01A
:1002B0007FFA03B4FFF7F2FF03BC0FF0EDFA000082
:1002C0002DE9F05F04460D4692469B4652465B463A
:1002D0002046294611F00EF802D22046294601E0B8
:1002E0005046594606460F460AA80FC811F002F8B4
:1002F00002D2DDE90A0101E0DDE90C018046894610
:1003000042464B463046394610F0F4FF03D23046A1
:100310003946BDE8F09F40464946FAE72DE9FF4FD0
:1003200081B00399019811F0F7FC81460399019877
:1003300011F0F2FC4946009011F0E6FB804611F006
:10034000EBF906460F460499029811F0E5FC814648
:100350000499029811F0E0FC4946009011F0D4FB9A
:10036000804611F0D9F982468B4652465B463046AC
:10037000394610F0E9FB804610F062FB04460D465A
:100380002046294605B0BDE8F08F2DE9FF470299C8
:10039000009811F0C1FC8146002111F081FC04D2CB
:1003A0000299009811F0B8FC05E00299009811F04C
:1003B000B3FC80F00040804611F0AEF90646FE4ADC
:1003C000FE4B10F05DFE02D8FD4CFE4D11E0009991
:1003D000029811F0A1FC07460199039811F09CFCCA
:1003E0008046394611F032FA064611F095F9044676
:1003F0000D462046294604B0BDE8F0872DE9FF47A9
:100400000299009811F088FC8146002111F048FC07
:1004100004D20299009811F07FFC05E0029900983F
:1004200011F07AFC80F00040804611F075F9064624
:10043000E14AE24B10F024FE0AD80399019811F02A
:100440002FFC02D2DE4CE04D3CE0DD4CDD4D39E0CE
:100450000099029811F060FC81460199039811F00F
:100460005BFC8246494611F0F1F9064611F054F959
:10047000074610F025F904460D460299009811F040
:100480000FFC0DD20399019811F00AFB08D2CC4A57
:10049000CE4B2046294610F057FB04460D4611E08E
:1004A0000299009811F0FCFB0CD20399019811F00D
:1004B000F7FB07D2C24AC54B2046294611F042F845
:1004C00004460D462046294604B0BDE8F0872DE9D4
:1004D000FF5F8CB014461D461AAE96E8C003324644
:1004E0003B463046394610F007FE22462B46CDE902
:1004F00006012046294610F0FFFDCDE90401DDE9A3
:10050000062310F021FBCDE9080110F099FACDE99E
:100510000A010D9811F000F932463B46CDE9000181
:1005200010F0EAFDCDE904010C9811F0F5F822462F
:100530002B46CDE9000110F0DFFDCDE90201DDE938
:10054000042310F001FB42464B46CDE9060110F0B2
:10055000FBFA00221346CDE9080110F0CBFE20D2B1
:100560000D9811F0D9F832463B46CDE9020110F062
:10057000C3FDCDE906010C9811F0CEF822462B46BA
:10058000CDE9020110F0B8FDCDE90401DDE9062353
:1005900010F0DAFA42464B46CDE9080110F0D4FAE1
:1005A00021E00D9811F0B8F832463B46CDE9020142
:1005B00010F0A2FDCDE906010C9811F0ADF822462D
:1005C0002B46CDE9020110F097FDCDE90401DDE9EC
:1005D000062310F0B9FA42464B46CDE9080110F067
:1005E000B3FA81F000418246DDE90A2310F068FB8E
:1005F00010B0BDE8F09F2DE9FF4F85B00899139822
:1006000011F08AFB824611F087F804460D461299D4
:10061000079811F081FB824611F07EF806460F46DE
:100620001399079811F070FA83460899129811F0FF
:100630006BFA5946049011F06FFB824611F06CF88A
:100640008046894622462B468DE8C003DDE9050138
:10065000FFF73DFF09B0BDE8F08F2DE9FF4F89B0EE
:10066000DDE9164526462F4600215948CDE90610FA
:100670000C9811F051F882468B460B9811F04CF80B
:1006800085F00043A0464246CDE9000110F034FD5C
:1006900052465B46CDE9020110F056FACDE904015D
:1006A000DDE90401CDE90201DDE9060132463B4600
:1006B000CDE90001DDE90901FFF709FF0DB0BDE853
:1006C000F08F2DE9FF4794B0824620AC94E8F00308
:1006D00032463B463046394610F00EFD22462B4648
:1006E000CDE90A012046294610F006FDCDE90801B2
:1006F000DDE90A2310F028FA42464B46CDE90E0107
:100700002046294610F0F8FCCDE90A01169811F0B0
:1007100003F832463B46CDE902012046294610F057
:10072000EBFCCDE90001DDE9022310F0E5FCCDE9A9
:100730000601159810F0F0FF32463B46CDE9020164
:100740003046394610F0D8FCCDE90001DDE902233E
:1007500010F0D2FCCDE90401DDE9062310F0F2FE31
:10076000CDE90801DDE90A2310F0ECFECDE90C012A
:10077000DDE90E2310F0A4FACDE9100110F0B2F972
:10078000129032463B463046394610F0B5FC2246C0
:100790002B46CDE90A012046294610F0ADFCCDE9F3
:1007A0000801DDE90A2310F0CFF942464B46CDE9B6
:1007B0000E01304639460DE07B14AE47E17A943F96
:1007C000EA2E4454FB21F93FFB21F9BFFB210940EC
:1007D0000000F0BF10F090FCCDE90A01159810F070
:1007E0009BFF32463B46CDE902012046294610F0E8
:1007F00083FCCDE90001DDE9022310F07DFCCDE9A9
:100800000601169810F088FF22462B46CDE902011A
:100810002046294610F070FCCDE90001DDE90223F5
:1008200010F06AFCCDE90401DDE9062310F08AFE30
:10083000CDE90801DDE90A2310F084FECDE90C01C1
:10084000DDE90E2310F03CFACDE9100110F04AF971
:100850001390DDE91201CAE9000118B0BDE8F08784
:100860000FB42DE9F04F89B082461699189811F00F
:1008700053FA834610F050FF04460D461799159819
:1008800011F04AFA834610F047FF06460F461899C2
:10089000159811F039F90690DDE9161011F034F9C8
:1008A0000590069911F038FA834610F035FF80461E
:1008B00089468DE8F00307A8DDE91312FFF701FF71
:1008C000DDE90701CAE9000109B0BDE8F00F5DF8F4
:1008D00014FB0FB42DE9F0478CB08246DDE91A45D0
:1008E00026462F4600211C48CDE90810189810F024
:1008F00013FFCDE90401179810F00EFF804685F034
:10090000004042460B46CDE900402046019910F0D8
:10091000F3FBCDE90201DDE9042310F015F9CDE97F
:100920000601DDE90601CDE90401DDE908013446EF
:100930003D46CDE90067CDE902010AA8DDE91512BF
:10094000FFF7BFFEDDE90A01CAE900010CB0BDE80E
:10095000F0075DF814FB00000000F0BF002011E07C
:10096000002100EB4002A04B03EBC202D16000EB80
:10097000400203EBC202116100EB400203EBC20232
:100980005161401C994909788842E9DB0021984A65
:100990001160984A1160984A1160984A1160984A0B
:1009A0001160984A1160002006E00022964B03EB8C
:1009B000C0031A605A60401C0528F6DB70470FB46C
:1009C0002DE9F84F0446002500260027A8464FF0E1
:1009D0007E500C9910F03AFF83464FF07E5110F094
:1009E000C7FE82460D9910F0C3FE81460B9911F0A7
:1009F0008BF805464FF080400D9911F085F883463D
:100A00004FF07E5110F0B4FE81460B9880F0004A02
:100A10004946504611F078F806460D990B9811F0AA
:100A200073F807463846109911F06EF8009030467A
:100A30000F9911F069F882462946204611F064F8B2
:100A40008346514610F094FE8146009910F090FEC6
:100A5000804641460E9810F08BFE0E900F98109035
:100A60000F940E98BDE8F80F5DF814FB0FB42DE954
:100A7000F84F0446002500260027A8464FF07E5078
:100A80000C9910F0E3FE83464FF07E5110F070FE9B
:100A900082460D9910F06CFE81460B9911F034F8E6
:100AA00005464FF080400D9911F02EF883464FF027
:100AB0007E5110F05DFE81460B9880F0004A494659
:100AC000504611F021F806460D990B9811F01CF8CC
:100AD000074648480168384611F016F80090444827
:100AE0000168304611F010F882462946204611F080
:100AF0000BF88346514610F03BFE8146009910F0FA
:100B000037FE804641463C48006810F031FE3A49C5
:100B1000086037480068374908603548046036483F
:100B20000068BDE8F80F5DF814FB0FB42DE9F84F2D
:100B30000446002500260027A8464FF07E500C9959
:100B400010F084FE83464FF07E5110F011FE824675
:100B50000D9910F00DFE81460B9910F0D5FF05465A
:100B60004FF080400D9910F0CFFF83464FF07E513B
:100B700010F0FEFD81460B9880F0004A4946504631
:100B800010F0C2FF06460D990B9810F0BDFF074606
:100B90001B480168384610F0B7FF009017480168FD
:100BA000304610F0B1FF82462946204610F0ACFFD7
:100BB0008346514610F0DCFD8146009910F0D8FDC7
:100BC000804641460F48006810F0D2FD0D4908608C
:100BD0000A4800680A490860084804600948006833
:100BE000BDE8F80F5DF814FB640000200C01002044
:100BF000F4000020F8000020FC000020000100208C
:100C00000401002008010020300B00201FB5E3483C
:100C1000DDE9001412C0E2480260E24803601FBD33
:100C20002DE9F04F8FB00025AB4600200A90DB483D
:100C30000CC8DD4803C8FFF7E1FB07460FF052FF81
:100C40000E90D9488168D648006811F065F80C907C
:100C5000D2480CC8D44803C8FFF760FB07460FF022
:100C600041FF0B900CE00C9810F056FD0746CF4A60
:100C7000CF4B10F067FCCDE908010FF033FF0C906B
:100C80000C9810F049FD0746C84ACA4B10F032FBD9
:100C9000E9D30CE00C9810F03FFDC44AC44BCDE9F9
:100CA00008010FF051FF07460FF01CFF0C900C9845
:100CB00010F032FD0746BD4ABF4B10F0E1F9E9D311
:100CC000BE48D0E91B12406FCDE900120290BB482C
:100CD00060300EC80C98FFF7C9FE0746B84910F0FF
:100CE00013FF8346B5487830D0E903124069CDE957
:100CF00000120290B14878300EC80B98FFF715FF2C
:100D00000A90B0480168584610F0CAFF03D2AD48B7
:100D1000D0F800B00CE0AB48006880F000475946BE
:100D2000384610F0BDFF03D2A648006880F0004BA3
:100D30000A9D9C480168284610F0B2FF02D29948EB
:100D400005680CE09748006880F00047294638465F
:100D500010F0A6FF03D29348006880F000450E987B
:100D600010F0DAFC07460FF0BDFDCDE9060128467C
:100D700010F0D2FCCDE90401DDE9062310F0BCF946
:100D8000CDE908010FF0AEFE04460E9810F0C4FC49
:100D9000CDE904010FF0FCFDCDE90601284610F075
:100DA000BBFC0746DDE9062310F0A6F9CDE90801F2
:100DB0000FF098FE06467C48D0F808A0504610F088
:100DC000ABFC07460FF0E4FDCDE90201304610F020
:100DD000A3FCCDE90001DDE9022310F08DF9CDE996
:100DE0000601504610F098FC07460FF07BFDCDE958
:100DF0000201204610F090FCCDE90001DDE902235C
:100E000010F07AF9CDE90401DDE906230FF09CFE2C
:100E1000CDE908010FF066FE0D90504610F07CFC05
:100E2000CDE900010FF05EFD07468846304610F020
:100E300073FC3A464346CDE9020110F05DF9CDE975
:100E40000601504610F068FC07460FF0A1FD84F043
:100E50000047CDE90201384610F05EFCCDE9000103
:100E6000DDE9022310F048F9CDE90401DDE90623AC
:100E70000FF06AFECDE908010FF034FE81460FB095
:100E8000BDE8F08F2DE9F05F4FF6FF7000F0BAF883
:100E9000FFF764FD4C4903C90FF024FE8146434A25
:100EA000444B4A4903C910F027F907460022484B32
:100EB0000FF006FF05460FF015FE04464B4622468E
:100EC000444803C8FFF7A2FE63E0FFF7A9FE8221B2
:100ED000002000F0B2FB40A000F0D2FB3D480CC85F
:100EE000314803C8FFF71AFA05460FF0FBFD044628
:100EF00000F014FC37480CC82B4803C8FFF70EFA63
:100F000004460022384B10F0BBF83FD2274A294B49
:100F10002E4903C910F0F0F8824600222C4B0FF046
:100F2000CFFE06460F462049886810F0F5FB804644
:100F300032463B4610F006FB04462C4A2C4B10F080
:100F40009FF823D2194A1B4B204903C910F0D4F84B
:100F5000804600221E4B0FF0B3FE04460D46124998
:100F6000886810F0D9FB064622462B4610F0EAFAB4
:100F700082461E4A1F4B10F0BDF907D200201E49C1
:100F800008601E4908601E49086003E00F2001F058
:100F9000E4FA9AE700BFBDE8F09F000030010020AE
:100FA000380100203C010020580B0020EA2E445458
:100FB000FB211940FB210940FB2109C064000020EE
:100FC00000007A44100100202801002020010020A8
:100FD00000806640140100206E6F775F646973744F
:100FE000616E63653A000000000049407B14AE4723
:100FF000E17A943FE17A94BF540000205000002031
:101000004C00002070B504460026F748058840884B
:101010004543F5488088A0F5D041043916D1F248FF
:101020008079012812D10020EF4988712A20488157
:101030002B2088810021084601F096FB0120EA4917
:1010400088712B2048812A20888103E000210846EE
:1010500001F08AFB01F06BFB002602E0E34804800C
:10106000761CAE42FAD370BD2DE9FC5F05460E46F4
:1010700017469846DDF8309000200190DA488088C5
:10108000A0F5D041043929D1D7488079012825D14C
:10109000AB463546D4480088C01B401E86B2474642
:1010A000D1480088A0EB0B00401E1FFA80F80020FA
:1010B000CD4988712A2048812B20888143463A46B1
:1010C00031462846CDF80090FFF7CEFF0120C649F3
:1010D00088712B2048812A2088811CE0781B401CC5
:1010E00080B20190344614E02146284601F03CFBD2
:1010F00001F01DFB4FF0000A06E0484601F0FFFA40
:101100000AF101001FFA80FA01988245F5DB601CA4
:1011100084B24445E8DDBDE8FC9F2DE9F84F074661
:101120000D4690469946DDF828B0A8EB0700401C14
:1011300080B20090A9EB0500401C1FFA80FA002441
:1011400015E0281981B2384601F00EFB01F0EFFAE4
:10115000002607E004FB0A603BF81000A349088062
:10116000701C86B200988642F4DB601C84B2544541
:10117000E7DBBDE8F88F2DE9FF4F85B081468A4651
:101180000020049003900798A0EB09050898A0EBB5
:101190000A06CDF80890CDF804A0002D01DD012746
:1011A00005E00DB9002702E04FF0FF376D42002E39
:1011B00002DD4FF0010806E016B94FF0000802E02A
:1011C0004FF0FF387642B54201DD2C4600E0344650
:1011D0004FF0000B21E0019A91B2029A90B201F017
:1011E000B0FD049828440490039830440390049878
:1011F000A04205DD0498001B049002983844029038
:101200000398A04205DD0398001B03900198404419
:1012100001900BF101001FFA80FB601C8345DADDB1
:1012200009B0BDE8F08F2DE9F04104460D461646A1
:101230001F462B46324629462046FFF79CFF3B4679
:10124000224629462046FFF796FF3B46324639465E
:101250002046FFF790FF3B46324629463046FFF7CF
:101260008AFFBDE8F0812DE9F04706460F4690461B
:10127000002445460320A0EB48093CE07A1B91B2CC
:10128000321990B201F05DFD3A1B91B2721990B221
:1012900001F057FD3A1991B2721990B201F051FD67
:1012A0007A1991B2321990B201F04BFD7A1991B2CC
:1012B000321B90B201F045FD3A1991B2721B90B207
:1012C00001F03FFD7A1B91B2321B90B201F039FD63
:1012D0003A1B91B2721B90B201F033FD641CB9F15C
:1012E000000F03DAA000801D814404E0601B800031
:1012F0000A3081446D1EAC42C0DDBDE8F0872DE9A7
:10130000F84F05460F4690461E4600973848B0F8FD
:101310000090A8F1200000F0FF080A9800284ED1A4
:10132000002449E00C2E07D108EB4800314901EBBD
:10133000800010F804A004E02F4800EB081010F81B
:1013400004A04FF0000B31E01AF0800F03D02848C2
:10135000A0F8009003E02948008825490880394614
:10136000284601F0EEFC4FEA4A604FEA106A781C0A
:1013700087B21D480088A84204DC1D48A0F80090F0
:10138000BDE8F88F0098381AB0420BD1009F681C56
:1013900085B215480088A84203DC1548A0F80090E3
:1013A000EEE706E00BF1010000F0FF0BBBF1080FC8
:1013B000CADB00BF601CC4B2B442B3DB51E00024FE
:1013C0004DE00C2E07D108EB48000A4901EB8000E4
:1013D00010F804A004E0084800EB081010F804A07E
:1013E0004FF0000B35E00000E20B00200008006C1D
:1013F00056030020141F0108882301085803002009
:101400001AF0800F03D03946284601F09AFC4FEAC3
:101410004A604FEA106A781C87B2FE484088A842AA
:1014200003DCFD48A0F80090AAE70098381AB04203
:101430000BD1009F681C85B2F6480088A84203DCE7
:10144000F548A0F800909BE706E00BF1010000F0E2
:10145000FF0BBBF1080FD3DB00BF601CC4B2B4426A
:10146000AFDBED48A0F8009000BF89E710B5024659
:10147000012000E050430B00A1F10104E1B2F9D1D9
:1014800010BD2DE9FF4F81B0074691461E460E9DC7
:101490004FF0000A002439E0301B401EC1B20A2080
:1014A000FFF7E4FFB9FBF0F00A21B0FBF1F201FB1A
:1014B0001208BAF1000F16D1701EA04213DDB8F168
:1014C000000F0ED10020AB4605EBDB71491001FB8C
:1014D0000471009088B22B4620220299FFF70FFF7B
:1014E00012E04FF0010A0020AB4605EBDB7149101A
:1014F00001FB0471009088B208F13001CAB22B469A
:101500000299FFF7FCFE00BF601CC4B2B442C3DB0B
:1015100005B0BDE8F08F2DE9FF4F83B00646924637
:101520001F46DDE910480020029000254DE0781BA1
:10153000401EC1B20A20FFF799FFBAFBF0F00A2162
:10154000B0FBF1F201FB1209029850BB781EA842D1
:1015500027DDB9F1000F22D118F0800F0FD008F06D
:101560000100A34604EBDB71491001FB056100900B
:1015700088B2234630220499FFF7C1FE0EE008F03E
:101580000100A34604EBDB71491001FB05610090EB
:1015900088B2234620220499FFF7B1FE13E0012010
:1015A000029008F00100A34604EBDB71491001FB37
:1015B0000561009088B209F13001CAB2234604994E
:1015C000FFF79DFE00BF681CC5B2BD42AFDB07B090
:1015D000BDE8F08F2DE9F84F04460D469046994638
:1015E000DDE90A6704F0FF0A08EB04001FFA80F83F
:1015F00009EB05001FFA80F916E0444502DB54466A
:10160000A81985B24D4500DB14E0002000903A781F
:10161000334629462046FFF772FE304606EBD0716E
:1016200004EB61018CB27F1C38787E2802DC3878AC
:101630002028E2DA00BFBDE8F88F784A1070784AB7
:1016400011700022774B1A707047F8B505461024C8
:101650000020264604EBD6714910724A0090127899
:101660006E4B1B7801FB023023462A466C490978F1
:10167000FFF745FE6B480078401C6A490870F8BDCA
:1016800010B5044603E02078FFF7DFFF641C2078E4
:101690000028F8D110BD0FB400B5A1B023A8209048
:1016A0006846209A22990CF06FFF0020209068462F
:1016B000FFF7E6FF21B05DF814FB30B502460025C8
:1016C000594932B9302001F8010B00200870564802
:1016D00030BD002A03DA2D2001F8010B5242534B92
:1016E0000DE092FBF3F404B935B104F1300001F8D8
:1016F000010B04FB132201250A2093FBF0F3002BBE
:10170000EFDC002008704848E2E770B50446204648
:10171000FFF7D3FF0546FFF7B3FF70BD2DE9FC418E
:10172000054600260021284610F0BAF904D22D20E3
:10173000FFF78BFF85F00045284610F049F9074672
:10174000FFF7E3FF284610F043F9804610F07CF9DC
:101750000746294610F0D5FA054600241CE0344916
:10176000284610F0D1F90546284610F031F93030FE
:10177000C0B20DF804001DF80400302800D0661C2B
:10178000284610F025F9804610F05EF907462946F4
:1017900010F0B7FA0546641C032CE0DB16B12E20CE
:1017A000FFF753FF002404E01DF80400FFF74DFF8E
:1017B000641CB442F8DB344603E02020FFF745FF09
:1017C000641C062CF9DBBDE8FC812DE9F0470546D9
:1017D0000E46154C0021284610F062F907D2154933
:1017E000284610F05DFA02D22D2004F8010B28469D
:1017F00010F0EEF88046FFF760FF074639462046B6
:101800000CF0ECFF38460DF00DF80444002E47DDD7
:101810002E2011E0E20B00205603002040010020A2
:101820004101002042010020640B002000CA9A3BC5
:1018300000002041000080BF04F8010B0021284671
:1018400010F02EF901D285F00045284610F0C0F8BE
:10185000824610F0F9F88146294610F052FA054602
:101860004FF0000817E01049284610F04DF90546E2
:10187000284610F0ADF8303004F8010B284610F07F
:10188000A7F8824610F0E0F88146294610F039FAB0
:10189000054608F10108B045E5DB0020207000BFD7
:1018A0000248BDE8F087000000002041640B0020E2
:1018B000FEB506460C465D4AD2E900109268CDE9B5
:1018C00001020091701E5DF82070002515E00025D2
:1018D00014F8011B38460AF027FA00E06D1C80213D
:1018E00038460AF08FFA18B94FF6FF708542F5D3E3
:1018F00040F6FF70854200D300BF20780028E6D173
:10190000FEBD70B50446D4E912532A4648A12046CC
:101910000CF04CFE21460120FFF7CAFF002020708A
:1019200070BD2DE9F04788B08246444988680FF0C1
:10193000F3FE04460D46414948680FF0EDFE0646A9
:101940000F463E4908680FF0E7FE80468946DAE90F
:101950001201CDE90089CDE90267CDE90445CDE961
:1019600006019AF8402036A150460CF01FFE514661
:101970000320FFF79DFF00208AF8000008B0BDE8B3
:10198000F08770B50446354A354BD4E912512846E4
:101990000FF0DAF8C4E912012046616D884770BD86
:1019A00010B560200CF09AFD04460021A164E164AA
:1019B000002020702B482065AFF299006065AFF2DF
:1019C000BD00A065204610BD10B5044620460CF0B1
:1019D000B4FD10BD2DE9FE4307460E469046134A5E
:1019E0000C3207CA8DE80700781E5DF820900024AD
:1019F000002500BF15E0315D48460AF095F900E08A
:101A00006D1C802148460AF0FDF918B94FF6FF70A9
:101A10008542F5D340F6FF70854200D300BF601CBD
:101A2000C4B24445E7DBBDE8FE830000FC1E0108AC
:101A300028252E31662C32290A000000580B002080
:101A40002825642C252E32662C252E36662C252E34
:101A500034662C252E34662C31290A009A999999DE
:101A60009999B93F831900082DE9F34F87B08A4649
:101A7000002006904FF07E5005900490734948680E
:101A80000FF0E2FF02905046049910F03DF80190EB
:101A9000029910F039F883460599079810F034F848
:101AA000594603900FF064FE0446694948680FF0F8
:101AB000CBFF02905046049910F026F8019002994D
:101AC00010F022F883460599079810F01DF8594642
:101AD00003900FF04DFE05465E480168204610F069
:101AE0001BF906465C480168284610F015F90746C0
:101AF0000021384610F0D4F801D2384601E087F0D2
:101B0000004000210390304610F0CAF801D2304660
:101B100001E086F000408346039910F0C1F809D235
:101B20000021304610F0BCF801D230460BE086F0C0
:101B3000004008E00021384610F0B2F801D23846E3
:101B400001E087F00040069042480460424805608A
:101B50000021204610F0A4F801D2204601E084F0D4
:101B600000403E4903900FF071FE83463C490FF060
:101B7000CBFF80460021284610F092F801D228467B
:101B800001E085F00040354903900FF05FFE834689
:101B900033490FF0B9FF81463249404610F080F8D2
:101BA00001D2DFF8C080304940460FF079FF01D202
:101BB0004FF000082B49484610F072F801D2DFF8C8
:101BC000A490294948460FF06BFF01D24FF000095D
:101BD00020460FF0A1FD00221346CDE902010FF0CF
:101BE0004FFA03D204202149086003E004201F4972
:101BF000091D086028460FF08FFD00221346CDE92D
:101C000002010FF077FB03D208201849086003E0B7
:101C100008201649091D0860642000F073FC414645
:101C2000134810F079F8834608490878594605F0BA
:101C300078FC49460E4810F06FF88346044908784E
:101C4000594605F06EFC09B0BDE8F08F4401002054
:101C50004C010020600100206401002000803B4511
:101C60000000B44200000C420000A04010080140F7
:101C70000000C84210B504F021FE10BD70B5044646
:101C8000002604F03AFE2546E11704EB1161091223
:101C9000A02202EB4101C8B204F0E9FE04F074FE98
:101CA000E11704EB11610912A4EB0121C8B204F0A1
:101CB000DEFE04F069FE04F020FEA12004F0D7FE51
:101CC00004F062FE002004F002FF064604F039FE34
:101CD000304670BD70B504460E4604F00EFE254633
:101CE000E11704EB11610912A02202EB4101C8B215
:101CF00004F0BDFE04F048FEE11704EB1161091287
:101D0000A4EB0121C8B204F0B2FE04F03DFE30465F
:101D100004F0ADFE04F038FE04F013FE0A2000F0DB
:101D20001CFC70BD2DE9F04105460E461746002407
:101D300009E0E20026FA02F2D1B22A1990B2FFF7C6
:101D4000C9FF601CC4B2BC42F3DBBDE8F0812DE9E1
:101D5000F04107460C460026002509E036023919F5
:101D6000491B491E88B2FFF789FF0644681CC5B2AB
:101D7000A542F3DB3046BDE8F08110B5FF20FFF748
:101D80007DFF0446552C01D1002010BD5521FF20B8
:101D9000FFF7A0FFFF20FFF771FF0446552C01D18C
:101DA0000020F2E70120F0E770B506460C46154624
:101DB00008E03046721C96B2FFF760FF04F8010B92
:101DC000681E85B2002DF4D170BD70B505460C4675
:101DD000164606E021782846FFF77CFF681C85B28E
:101DE000641C3000A6F101018EB2F3D170BD000079
:101DF00008B501208DF8030014208DF800000020A4
:101E00008DF801008DF80200684607F0A4F915204E
:101E10008DF8000000208DF8010001208DF80200EF
:101E2000684607F098F908BD08B50121084608F092
:101E3000C9FE0121082008F0C5FE0121480608F06E
:101E4000CEFE01214FF4EA1008F0D5FC4FF480706B
:101E5000ADF8000048208DF803006946A44808F05A
:101E6000FBFB4FF40070ADF8000018208DF8030064
:101E700003208DF8020069469D4808F0EDFB08BD7F
:101E80000EB50121480608F0AAFE9A4807F0CCF9E1
:101E9000684607F0EDFA00208DF806008DF807007F
:101EA0008DF808008DF809008DF80A0001208DF8E2
:101EB0000B0000208DF802008DF8030001208DF842
:101EC000040002208DF805000C20ADF800006946E2
:101ED000884807F0C2F90EBD7FB500240026012016
:101EE0008DF80B0000208DF80C0001208DF80D00FE
:101EF00000BF23E004EB84007F4911F82000D8B92B
:101F00008DF80A60701CC6B204EB840001EB8000FF
:101F100040784501ADF80050ADF80250ADF80450DE
:101F2000ADF8065004EB840001EB8000407CADF876
:101F30000800684607F01BFA601CC4B26F480078BE
:101F40008442D7DB7FBD10B501220221694807F02A
:101F50000DFD01221021674807F008FD10BD10B5E6
:101F600000F0D0F8FFF744FFFFF75EFFFFF788FFB0
:101F7000FFF7B2FFFFF7E7FF10BD10B586B001AA6B
:101F800000215C4807F0D7FB5D490198085CFF28F9
:101F900049D00198085C00EB8000574901EB8000B4
:101FA000007A9DF80E1088423DD155490198085C91
:101FB00000EB8000504911F82000012833D150492E
:101FC0000198085C00EB80004B4901EB8000007C2D
:101FD000012828D14A490198085C00EB8000464955
:101FE00001EB8000407CF0B900240EE00DF10F0001
:101FF000005D434A0199515C01EB81013E4A02EBCD
:10200000810149680855601CC4B29DF80E00A042C9
:10201000ECDC3B4A0199515C01EB8101364A02EB51
:102020008101C868804706B010BD10B586B001AA0E
:102030000121304807F07FFB31490198085CFF28F7
:1020400049D00198085C00EB80002B4901EB80002F
:10205000007A9DF80E1088423DD129490198085C0C
:1020600000EB8000244911F82000A0BB244901980E
:10207000085C00EB8000204901EB8000007C012817
:1020800029D11F490198085C00EB80001A4901EB37
:102090008000407C01281ED100240EE00DF10F00CD
:1020A000005D174A0199515C01EB8101124A02EB74
:1020B000810149680855601CC4B29DF80E00A04219
:1020C000ECDC0F4A0199515C01EB81010A4A02EBF9
:1020D0008101C868804706B010BD10B5044600BF36
:1020E0002146044807F032FA0428F9D010BD000058
:1020F000000C0140006400407001002068010020D5
:10210000980100200221324A1170002003E0FF21D3
:10211000304A1154401CFF28F9DD002008E000EB94
:1021200080022D4B03EB820252782A4B9854401CBC
:10213000274909788842F2DB704730B585B00446FC
:102140002448005D2249097888420ADB2148005D65
:1021500000EB8000204911F82000012801D005B0D3
:1021600030BD1C48005D00EB80001B4901EB800086
:1021700040780090002001908DF808008DF809004B
:102180001448005D00EB800001EB8000007A8DF8C0
:102190000A0000250DE00F48005D00EB80000E49AD
:1021A00001EB80004068415D0DF10B004155681C5A
:1021B000C5B20848005D00EB8000074901EB8000D4
:1021C000007AA842E7DC6846FFF787FF00BFC6E752
:1021D000680100209801002070010020704738B588
:1021E00005460C4600959DF80000074908709DF8CB
:1021F0000100487008468470E320FFF79EFF38BD59
:1022000070477047704700009E02002010B50A20FA
:1022100000F078F910BD08B50121882008F0D2FC43
:102220000220ADF8000010208DF8030003208DF887
:10223000020069468B4808F00FFA0221894808F02D
:10224000B6FA4FF40070ADF800006946864808F011
:1022500003FA4FF40071844808F0A9FA08BD10B5DC
:102260008148001D006820F0F0007F49091D0860CA
:102270000846006840F03000086001207B49086093
:102280007B49C1F88401FFF7C1FF0020774908604E
:10229000FFF7BCFF00207649C1F8840110BD10B5DE
:1022A0007148001D006820F0F0006F49091D0860AA
:1022B0000846006840F03000086001206D49086061
:1022C000FFF7A4FF00206C49C1F8A401FFF79EFFAF
:1022D000012066490860FFF799FF10BD10B5002482
:1022E0006148001D006820F0F0005F49091D08608A
:1022F0000846006840F08000086001205B490860E3
:1023000000F000F901205A49C1F8840100F0FAF800
:1023100007E0601CC4B2FA2C03DDFFF7C0FF012008
:1023200010BD564800680028F3D15249086000BF2C
:10233000F6E710B500204F4908605148006820F0CA
:10234000F0004F4908600846006840F0300008601F
:102350004FF000004849C1F8A401FFF757FF0120E2
:1023600044490860FFF752FF00204149C1F8840149
:1023700010BD10B500203F4908604148006820F0BA
:10238000F0003F4908600846006840F030000860EF
:102390004FF001003849C1F8A401FFF737FF0120D1
:1023A00034490860FFF732FF00203149C1F8840149
:1023B00010BD70B504463248006820F0F000304986
:1023C00008600846006840F0300008600020294995
:1023D0000860054614E0E009244908604FEA4460BB
:1023E0004FEA10644FF001002149C1F88401FFF762
:1023F0000DFF00201F490860FFF708FF681CC5B2E9
:10240000082DE8DB70BD70B5054600241C48006847
:1024100020F0F0001A4908600846006840F080008B
:102420000860002613E00020124908604FF01E00EB
:1024300000F068F801200E49C1F884016006040E1E
:102440000E48006808B1601CC4B2701CC6B2082EE9
:10245000E9DB15B9FFF78DFF01E0FFF76AFF2046C2
:1024600070BD0000000C0140001C0140A48123420B
:102470000080214284812142008023422481234222
:10248000041C014010B50AF0F1F810BD10B50AF0B7
:1024900032F910BD10B5044620460BF091FE10BD78
:1024A00010B53E480078012805D10AF08CF80AF0F2
:1024B000D0F90AF0A3F810BD10B56FF0040006F0D3
:1024C00095FE374800683749B0FBF1F0364908708F
:1024D000334800683349B0FBF1F441F2883044439B
:1024E0000520324908804FF0E020006940F00200EA
:1024F0004FF0E021086108464461006940F00100A6
:10250000086110BD2DE9F047074600264FF0E02096
:10251000D0F814902448007807FB00F800BFFFF7BC
:10252000B1FF4FF0E020856911E04FF0E0208469B1
:10253000AC420CD0AC4202D2281B064403E0A9EB0B
:102540000400284406442546464500D300E0ECE755
:1025500000BFFFF79BFFBDE8F08770B504460F484A
:102560000078A0B11248007888B9104800888442E9
:1025700006DB0E48008894FBF0F52846FFF78AFF3B
:102580000A48008894FBF0F100FB114084B24FF43C
:102590007A7104FB01F0FFF7B5FF70BD0A0B002054
:1025A000BC0A002000127A00B0020020B202002013
:1025B000FD0A00202DE9FF4104460D4660784A4996
:1025C00001EB8027A1780120884086B26278012142
:1025D00091404FF6FF7202EA8100012108F0F2FA01
:1025E0000121424808F007F9ADF80C602078002876
:1025F00053D1E078082808D00C280DD148208DF858
:102600000F000C208DF8090007E028208DF80F003E
:1026100008208DF8090000E000BF00BF03A938467C
:1026200008F01AF80DB907F01DFCA17801208840C8
:102630002F490860A178607808F022F9A17801207C
:1026400088400190E078082804D00C2806D18DF845
:10265000090004E008208DF8090000E000BF00BF79
:1026600000208DF8080001208DF80A0001A807F06D
:1026700007FC4FF4A06006F069FD20798DF800009A
:1026800060798DF80100A0798DF8020001208DF8A5
:102690000300684606F05FFD13E02078012809D1A9
:1026A0008DF80E0010208DF80F0003A9384607F0B2
:1026B000D3FF06E028208DF80F0003A9384607F065
:1026C000CBFFBDE8FF8110B5002400BF08E0C4EBDC
:1026D000C401084A88182146FFF76CFF601CC4B289
:1026E000172CF4DB10BD0000000801400002300090
:1026F00014040140B4020020FE4908807047FD49DF
:10270000891C08807047FB48801C00887047F94A84
:102710001080921C1180704710B504462046FFF7C8
:10272000EBFF0520FFF7EEFEFFF7EDFF10BDF248CF
:102730000089F04908807047EE49891C088070477D
:1027400030B5014601F01F04C1F34513CA0AE50282
:1027500005EB43151544A8B230BD00BF0100A0F140
:102760000102D0B2FAD1704710B503460C46E248D8
:102770008088A0F51341413905D0DF488088A0F555
:10278000A641103914D1DC494889FFF7B5FF18126A
:10279000FFF7B5FFD8B2FFF7B2FFD7498889FFF737
:1027A000ABFF2012FFF7ABFFE0B2FFF7A8FF5DE041
:1027B000D1488088A0F5D04104391DD1CE48807918
:1027C000012804D1CC480088401EC01A83B2CA49EF
:1027D0004889FFF791FF1812FFF791FFD8B2FFF772
:1027E0008EFFC5498889FFF787FF2012FFF787FF13
:1027F000E0B2FFF784FF39E0BF488088A0F5AA4126
:10280000103920D1BC494889FFF776FF1812FFF72D
:1028100076FFB9494989491C88B2FFF76DFFD8B2E4
:10282000FFF76DFFB4498889FFF766FF2012FFF7B5
:1028300066FFB1498989491C88B2FFF75DFFE0B2A4
:10284000FFF75DFF12E0AC488079012804D1AA4867
:102850000088401EC01A83B2A74948891946FFF76D
:1028600056FFA54988892146FFF751FF10BD2DE984
:10287000F04105460E4600240027A0469E480088E9
:10288000A84203DD9C484088B04202DC0020BDE83D
:10289000F08131462846FFF767FF97488088A0F50A
:1028A000134141390BD094488088A0F5D0410439B8
:1028B00005D091488088A0F5A641103903D12E207B
:1028C000FFF71AFF0DE08C488088A0F5AA41103967
:1028D00004D14FF43850FFF70FFF02E02220FFF73A
:1028E0000BFF85488088A0F51341203902D10220D2
:1028F000FFF733FF7F48801C008800B100240220CE
:10290000FFF72BFF7B48801C04887B488088A0F55C
:10291000134141390BD078488088A0F5A641103981
:1029200005D075488088A0F5AA4110390CD1022045
:10293000FFF713FF6F48801CB0F80080E7B24FF636
:10294000FF7000EA072708E06B488088A0F5D041B7
:10295000043902D16748801C048867488088A0F544
:102960001341253917D064488088A0F58A4135394C
:1029700011D061488088A0F58A4131390BD05E487A
:102980008088A0F50941893905D05B488088A0F589
:102990003541053901D1204679E757488088A0F5AF
:1029A000134141390BD054488088A0F5A641103915
:1029B00005D051488088A0F5AA41103907D1E0120E
:1029C000C002B91240EA411040EAE8205FE7204621
:1029D000FFF7B6FE5BE700B547488088A0F51341D6
:1029E00041390BD044488088A0F5D041043905D046
:1029F00041488088A0F5A641103903D12920FFF76E
:102A00007BFE0FE03C488088A0F5AA41103904D134
:102A10004FF42450FFF770FE04E040F273110720DA
:102A2000FFF775FE00BD00B533488088A0F513415F
:102A300041390BD030488088A0F5D041043905D009
:102A40002D488088A0F5A641103903D12820FFF732
:102A500053FE0EE028488088A0F5AA41103904D121
:102A60004FF42050FFF748FE03E000210720FFF756
:102A70004EFE00BDF0B50546002400271E488079B3
:102A800001281ED11C488088A0F5D041043918D0F7
:102A9000082D15D2DFE805F00406080A0C0E101206
:102AA00006250DE007250BE0042509E0052507E0D4
:102AB000012505E0002503E0032501E0022500BF14
:102AC00000BF0D488088A0F51341413911D00A4854
:102AD0008088A0F5D04104390BD007488088A0F544
:102AE000A641103905D004488088A0F5AA411039C4
:102AF0007ED103E0FE07006CE20B0020082D1CD203
:102B0000DFE805F00406090C0F12151800BF14E0E9
:102B100044F0800411E044F040040EE044F0C004AE
:102B20000BE044F0200408E044F0600405E044F0C9
:102B3000A00402E044F0E00400BF00BFFC4880882D
:102B4000A0F5AA41103902D14FF4585700E03627BA
:102B5000F7488088A0F5A641103907D0F44880884E
:102B6000A0F5AA41103901D044F00804F04880884B
:102B7000A0F5D041043901D144F002042146384681
:102B8000FFF7C5FD14F0200F03D1E9488079012833
:102B90000DD1E7480088E6494988884214DAE448BC
:102BA00006884088E2490880084646800CE0E048F4
:102BB0000088DF494988884206DDDD48068840886C
:102BC000DB49088008464680D9488088A0F5AA419C
:102BD000103954D1D6494889FFF78EFD0020FFF700
:102BE0008EFDD3494989491C88B2FFF785FD00E075
:102BF00074E00020FFF783FDCD494989891C88B224
:102C0000FFF77AFDCA490988491EC1F30F20FFF773
:102C100076FDC7494989C91C88B2FFF76DFDC449D3
:102C20000978491EC8B2FFF76AFDC1498889FFF7D4
:102C300063FD0020FFF763FDBD498989491C88B207
:102C4000FFF75AFD0020FFF75AFDB9498989891C11
:102C500088B2FFF751FDB6494988491EC1F30F20DC
:102C6000FFF74DFDB2498989C91C88B2FFF744FDC1
:102C7000AF498978491EC8B2FFF741FD60E0AC4911
:102C80004889FFF739FD0020FFF739FD0020FFF7E5
:102C900036FDA7490988491EC1F30F20FFF72FFD14
:102CA000A3490978491EC8B2FFF729FDA0498889C0
:102CB000FFF722FD0020FFF722FD0020FFF71FFD98
:102CC0009B494988491EC1F30F20FFF718FD984919
:102CD0008978491EC8B2FFF712FD31E0082D1CD2D9
:102CE000DFE805F004070A0D0F12151844F0300450
:102CF00013E044F0100410E044F020040DE000BFA5
:102D00000BE044F0380408E044F0280405E044F007
:102D1000180402E044F0080400BF00BF8448808823
:102D2000A0F50941893904D1112746F24000044336
:102D300002E0032744F4805421463846FFF7E7FCBD
:102D4000F0BD30B504460D4629462046FFF70CFD80
:102D5000FFF7EDFC774800887749088030BD30B533
:102D600003460C46154672488088A0F51341413948
:102D700005D06F488088A0F5A641103914D16C4960
:102D80004889FFF7B9FC1812FFF7B9FCD8B2FFF772
:102D9000B6FC67498889FFF7AFFC2012FFF7AFFC4C
:102DA000E0B2FFF7ACFC5DE061488088A0F5AA4185
:102DB000103920D15E494889FFF79EFC1812FFF7B1
:102DC0009EFC5B494989491C88B2FFF795FCD8B243
:102DD000FFF795FC56498889FFF78EFC2012FFF714
:102DE0008EFC53498989491C88B2FFF785FCE0B203
:102DF000FFF785FC36E04E488088A0F5D0410439C5
:102E00001DD14B488079012804D149480088401ED3
:102E1000C01A83B246494889FFF76EFC1812FFF7C3
:102E20006EFCD8B2FFF76BFC41498889FFF764FC60
:102E30002012FFF764FCE0B2FFF761FC12E03C48AF
:102E40008079012804D13A480088401EC01A83B214
:102E5000374948891946FFF75AFC35498889214680
:102E6000FFF755FC324800893349891E0880881CC9
:102E7000058030BD10B50446002C67D12C498871FF
:102E8000F02008804FF4A070488008468088A0F5A4
:102E9000134141390BD026488088A0F5D041043930
:102EA00005D023488088A0F5A64110391AD12C20DE
:102EB0001F4908812A2048812B2088810846808864
:102EC000A0F5D041043905D019488088A0F5A64165
:102ED000103906D14FF4A070154908804FF4F070F6
:102EE00048809CE012488088A0F50941893907D1C3
:102EF00022200F4908814E2048814F2088818EE092
:102F00000B488088A0F5AA41103917D14FF43050F2
:102F1000074908814FF4285048814FF42C5088818C
:102F20004FF4F07008804FF44870488077E00DE06F
:102F3000E20B0020560300200008006C2220FE490E
:102F40000881202048812120888168E00120FA49F9
:102F500088714FF4A0700880F0204880084680886F
:102F6000A0F51341413905D0F3488088A0F5A6416A
:102F7000103907D12C20F04908812A2048812B20C4
:102F8000888139E0EC488088A0F5D041043907D128
:102F90002C20E94908812B2048812A2088812BE0B8
:102FA000E5488088A0F50941893907D12220E24906
:102FB00008814F2048814E2088811DE0DE488088AE
:102FC000A0F5AA41103910D14FF43050DA490881E8
:102FD0004FF4285048814FF42C5088814FF44870AA
:102FE00008804FF4F070488006E02220D249088122
:102FF0002120488120208881CF488088A0F5D041B9
:10300000043905D0CC488088A0F5A641103906D1F6
:103010004FF4F070C84908804FF4A0704880002039
:10302000FFF728FD10BD2DE9FF4F04460D4616465B
:103030001F46A019401E86B2E819401E87B2BE483E
:103040008088A0F5134141390BD0BB488088A0F59A
:10305000A641103905D0B8488088A0F5D041043980
:1030600020D1B5494889FFF747FB2012FFF747FBFE
:10307000E0B2FFF744FB3012FFF741FBF0B2FFF77D
:103080003EFBAD498889FFF737FB2812FFF737FB76
:10309000E8B2FFF734FB3812FFF731FBF8B2FFF765
:1030A0002EFB90E0A4488088A0F5AA41103944D1B5
:1030B000A1494889FFF720FB2012FFF720FB9E491A
:1030C0004989491C88B2FFF717FBE0B2FFF717FBED
:1030D00099494989891C88B2FFF70EFB3012FFF726
:1030E0000EFB95494989C91C88B2FFF705FBF0B270
:1030F000FFF705FB90498889FFF7FEFA2812FFF7D2
:10310000FEFA8D498989491C88B2FFF7F5FAE8B2C1
:10311000FFF7F5FA88498989891C88B2FFF7ECFA2C
:103120003812FFF7ECFA84498989C91C88B2FFF785
:10313000E3FAF8B2FFF7E3FA45E07F488079012827
:103140000ED1A846B9467C480088801B401E80B23C
:10315000019079480088001B401E80B2009003E077
:10316000A046B1460195009773488088A0F50941B3
:1031700089390CD14FF0440AD34648EA09201FFA96
:1031800080F8C146452003904620029007E04FF0AA
:10319000500A4FF0510B52200390532002904146A9
:1031A0005046FFF7B4FA49465846FFF7B0FA01997E
:1031B0000398FFF7ACFA00990298FFF7A8FA29469E
:1031C0002046FFF7D1FABDE8FF8F00B59FB001217F
:1031D000080207F0EAFC012140F2691007F0F2FC56
:1031E0000120ADF8780010208DF87B0003208DF8C9
:1031F0007A001EA9514807F02FFA4CF23370ADF84F
:10320000780018208DF87B0003208DF87A001EA925
:103210004B4807F021FA4FF68070ADF8780018207F
:103220008DF87B0003208DF87A001EA9454807F031
:1032300013FA41F20100ADF8780018208DF87B00F8
:1032400003208DF87A001EA93F4807F005FA0120F7
:103250000890002009900F200A9000200B900C90FD
:103260000D900E9001900290032003900020049096
:1032700005900690079006200F9000201090119066
:103280001020129000201390159014901690179013
:103290004FF480501890002019904FF480401A90FD
:1032A00000201B9008A81C9001A81D900FA806F0F4
:1032B000B6FE0121062007F013F83220FFF74DF982
:1032C00001210020FFF723FA3220FFF746F9002002
:1032D000FFF722FA1849888008468088FF280ADB11
:1032E00008468088A0F57F41FF3904D012488088C5
:1032F000B0F5134F7DD1D320FFF7FEF9FFF703FAA6
:10330000FFF701FAFFF7FFF90B498880084680882C
:103310004FF6FF7101EA002007498880FFF7F3F9B3
:103320000549898808430449888008468088A0F5B3
:103330001341413977D009E0E20B0020000C014035
:10334000001401400018014000200140BF20FFF799
:10335000D3F9FFF7D8F9FFF7D6F9FFF7D4F9FFF75C
:10336000D2F9FE498880084680884FF6FF7101EA4D
:103370000020FA498880FFF7C6F9F8498988084390
:10338000F649888008468088A0F5D04104394AD0A3
:10339000D420FFF7B1F9FFF7B6F9FFF7B4F9FFF75B
:1033A000B2F9EE498880084680884FF6FF7101EA3D
:1033B0000020EA498880FFF7A6F9E8498988084390
:1033C000E649888008468088A0F5A64110392AD0B1
:1033D0004FF45A40FFF790F9FFF795F94FF45B402F
:1033E000FFF78AF9FFF78FF9DC4988800846808863
:1033F00000E018E04FF6FF7101EA0020D74988800D
:103400004FF45C40FFF778F9FFF77DF9D3498988DD
:103410000843D249888008468088B0F5004F02D121
:1034200045F210508880CD488088A0F5134141397D
:103430007ED1CF20FFF760F90020FFF760F9C120AF
:10344000FFF75DF93020FFF75AF9ED20FFF754F947
:103450006420FFF754F90320FFF751F91220FFF71A
:103460004EF98120FFF74BF9E820FFF745F9852059
:10347000FFF745F91020FFF742F97A20FFF73FF9EF
:10348000CB20FFF739F93920FFF739F92C20FFF766
:1034900036F90020FFF733F93420FFF730F9022026
:1034A000FFF72DF9F720FFF727F92020FFF727F97D
:1034B000EA20FFF721F90020FFF721F90020FFF7AC
:1034C0001EF9C020FFF718F91B20FFF718F9C120DB
:1034D000FFF712F90120FFF712F9C520FFF70CF9E9
:1034E0003020FFF70CF93020FFF709F9C720FFF76C
:1034F00003F9B720FFF703F93620FFF7FDF848205E
:10350000FFF7FDF83A20FFF7F7F85520FFF7F7F837
:10351000B120FFF7F1F80020FFF7F1F81A20FFF7CC
:10352000EEF8B620FFF7E8F80A20FFF7E8F800E029
:1035300097E0A220FFF7E3F8F220FFF7DDF8002084
:10354000FFF7DDF82620FFF7D7F80120FFF7D7F8BF
:10355000E020FFF7D1F80F20FFF7D1F82A20FFF77E
:10356000CEF82820FFF7CBF80820FFF7C8F80E2088
:10357000FFF7C5F80820FFF7C2F85420FFF7BFF89F
:10358000A920FFF7BCF84320FFF7B9F80A20FFF79E
:10359000B6F80F20FFF7B3F80020FFF7B0F80020CF
:1035A000FFF7ADF80020FFF7AAF80020FFF7A7F813
:1035B000E120FFF7A1F80020FFF7A1F81520FFF7A1
:1035C0009EF81720FFF79BF80720FFF798F81120C7
:1035D000FFF795F80620FFF792F82B20FFF78FF8FA
:1035E0005620FFF78CF83C20FFF789F80520FFF7FD
:1035F00086F81020FFF783F80F20FFF780F83F20B0
:10360000FFF77DF83F20FFF77AF80F20FFF777F8F4
:103610002B20FFF771F80020FFF771F80020FFF76B
:103620006EF80120FFF76BF83F20FFF768F82A20BB
:10363000FFF762F80020FFF762F80020FFF75FF85D
:103640000020FFF75CF8EF20FFF759F81120FFF793
:1036500053F87820FEF781FF2920FFF74DF803F09B
:103660001DB93E488088A0F5D041043978D1112099
:10367000FFF742F81420FEF770FFD020FFF73CF868
:103680000720FFF73CF84220FFF739F81D20FFF72D
:1036900036F8D120FFF730F80020FFF730F81A2075
:1036A000FFF72DF80920FFF72AF8D220FFF724F8BA
:1036B0000120FFF724F82220FFF721F8C020FFF7B0
:1036C0001BF81020FFF71BF83B20FFF718F800202D
:1036D000FFF715F80220FFF712F81120FFF70FF897
:1036E000C520FFF709F80320FFF709F8C820FFF706
:1036F00003F80020FFF703F82520FFF700F821204A
:10370000FEF7FDFF0520FEF7FAFF0020FEF7F7FFAA
:103710000A20FEF7F4FF6520FEF7F1FF2520FEF7F3
:10372000EEFF7720FEF7EBFF5020FEF7E8FF0F20BB
:10373000FEF7E5FF0020FEF7E2FFF820FEF7DCFFD2
:103740000120FEF7DCFFFE20FEF7D6FF0020FEF78B
:10375000D6FF0220FEF7D3FF202002E0E20B00207C
:1037600032E0FEF7C9FF3620FEF7C6FF0820FEF75D
:10377000C6FF3A20FEF7C0FF5520FEF7C0FF2B2002
:10378000FEF7BAFF0020FEF7BAFF0020FEF7B7FFF2
:103790000120FEF7B4FF3F20FEF7B1FF2A20FEF71D
:1037A000ABFF0020FEF7ABFF0020FEF7A8FF0120D3
:1037B000FEF7A5FFDF20FEF7A2FF7820FEF7CDFE83
:1037C0002920FEF799FF4AE7FE488088A0F5A64128
:1037D000103940F07C87ED20FEF78EFF0120FEF7C8
:1037E0008EFFFE20FEF78BFFEE20FEF785FFDE202A
:1037F000FEF785FF2120FEF782FFF120FEF77CFF18
:103800000120FEF77CFFDF20FEF776FF1020FEF799
:1038100076FFC420FEF770FF8F20FEF770FFC620F2
:10382000FEF76AFF0020FEF76AFFE220FEF767FF5F
:10383000E220FEF764FFE220FEF761FFBF20FEF703
:103840005BFFAA20FEF75BFFB020FEF755FF0D20BF
:10385000FEF755FF0020FEF752FF0D20FEF74FFF49
:103860000020FEF74CFF1120FEF749FF0020FEF775
:1038700046FF1920FEF743FF0020FEF740FF2120FE
:10388000FEF73DFF0020FEF73AFF2D20FEF737FF41
:103890000020FEF734FF3D20FEF731FF0020FEF749
:1038A0002EFF5D20FEF72BFF0020FEF728FF5D2096
:1038B000FEF725FF0020FEF722FFB120FEF71CFFD8
:1038C0008020FEF71CFF0020FEF719FF8B20FEF77B
:1038D00016FF0020FEF713FF9620FEF710FF0020D2
:1038E000FEF70DFFB220FEF707FF0020FEF707FFEF
:1038F0000020FEF704FF0220FEF701FF0020FEF784
:10390000FEFE0320FEF7FBFE0020FEF7F8FEB320CC
:10391000FEF7F2FE0020FEF7F2FE0020FEF7EFFEBB
:103920000020FEF7ECFE0020FEF7E9FE0020FEF787
:10393000E6FE0020FEF7E3FE0020FEF7E0FE00209A
:10394000FEF7DDFE0020FEF7DAFE0020FEF7D7FED0
:103950000020FEF7D4FE0020FEF7D1FE0020FEF787
:10396000CEFE0020FEF7CBFE0020FEF7C8FE0020B2
:10397000FEF7C5FE0020FEF7C2FE0020FEF7BFFEE8
:103980000020FEF7BCFE0020FEF7B9FE0020FEF787
:10399000B6FE0020FEF7B3FE0020FEF7B0FE0020CA
:1039A000FEF7ADFEB420FEF7A7FE8B20FEF7A7FEC4
:1039B0000020FEF7A4FE9620FEF7A1FE0020FEF7F1
:1039C0009EFEA120FEF79BFE0020FEF798FEB5208C
:1039D000FEF792FE0220FEF792FE0020FEF78FFE19
:1039E0000320FEF78CFE0020FEF789FE0420FEF780
:1039F00086FE0020FEF783FEB620FEF77DFE002047
:103A0000FEF77DFE0020FEF77AFEB720FEF774FE7B
:103A10000020FEF774FE0020FEF771FE3F20FEF747
:103A20006EFE0020FEF76BFE5E20FEF768FE0020B3
:103A3000FEF765FE6420FEF762FE0020FEF75FFEE3
:103A40008C20FEF75CFE0020FEF759FEAC20FEF74E
:103A500056FE0020FEF753FEDC20FEF750FE00204D
:103A6000FEF74DFE7020FEF74AFE0020FEF747FEEF
:103A70009020FEF744FE0020FEF741FEEB20FEF70B
:103A80003EFE0020FEF73BFEDC20FEF738FE002065
:103A9000FEF735FEB820FEF72FFE0020FEF72FFEC2
:103AA0000020FEF72CFE0020FEF729FE0020FEF786
:103AB00026FE0020FEF723FE0020FEF720FE002059
:103AC000FEF71DFE0020FEF71AFEBA20FEF714FED8
:103AD0002420FEF714FE0020FEF711FE0020FEF762
:103AE0000EFE0020FEF70BFEC120FEF705FE202093
:103AF000FEF705FE0020FEF702FE5420FEF7FFFD54
:103B00000020FEF7FCFDFF20FEF7F9FD0020FEF788
:103B1000F6FDC220FEF7F0FD0A20FEF7F0FD0020C2
:103B2000FEF7EDFD0420FEF7EAFD0020FEF7E7FDBD
:103B3000C320FEF7E1FD3C20FEF7E1FD0020FEF78B
:103B4000DEFD3A20FEF7DBFD0020FEF7D8FD392030
:103B5000FEF7D5FD0020FEF7D2FD3720FEF7CFFDA2
:103B60000020FEF7CCFD3C20FEF7C9FD0020FEF74B
:103B7000C6FD3620FEF7C3FD0020FEF7C0FD322053
:103B8000FEF7BDFD0020FEF7BAFD2F20FEF7B7FDC2
:103B90000020FEF7B4FD2C20FEF7B1FD0020FEF75B
:103BA000AEFD2920FEF7ABFD0020FEF7A8FD262084
:103BB000FEF7A5FD0020FEF7A2FD2420FEF79FFDE5
:103BC000002001E0E20B0020FEF799FD2420FEF723
:103BD00096FD0020FEF793FD2320FEF790FD0020C8
:103BE000FEF78DFD3C20FEF78AFD0020FEF787FDE5
:103BF0003620FEF784FD0020FEF781FD3220FEF71F
:103C00007EFD0020FEF77BFD2F20FEF778FD0020D3
:103C1000FEF775FD2C20FEF772FD0020FEF76FFD0C
:103C20002920FEF76CFD0020FEF769FD2620FEF737
:103C300066FD0020FEF763FD2420FEF760FD0020F6
:103C4000FEF75DFD2420FEF75AFD0020FEF757FD2C
:103C50002320FEF754FD0020FEF751FDC420FEF79F
:103C60004BFD6220FEF74BFD0020FEF748FD0520CE
:103C7000FEF745FD0020FEF742FD8420FEF73FFDE4
:103C80000020FEF73CFDF020FEF739FD0020FEF796
:103C900036FD1820FEF733FD0020FEF730FDA4208E
:103CA000FEF72DFD0020FEF72AFD1820FEF727FD68
:103CB0000020FEF724FD5020FEF721FD0020FEF736
:103CC0001EFD0C20FEF71BFD0020FEF718FD17203F
:103CD000FEF715FD0020FEF712FD9520FEF70FFD03
:103CE0000020FEF70CFDF320FEF709FD0020FEF793
:103CF00006FDE620FEF703FD0020FEF700FDC520CF
:103D0000FEF7FAFC3220FEF7FAFC0020FEF7F7FC83
:103D10004420FEF7F4FC0020FEF7F1FC6520FEF7DE
:103D2000EEFC0020FEF7EBFC7620FEF7E8FC00201E
:103D3000FEF7E5FC8820FEF7E2FC0020FEF7DFFC42
:103D4000C620FEF7D9FC2020FEF7D9FC0020FEF7A4
:103D5000D6FC1720FEF7D3FC0020FEF7D0FC012094
:103D6000FEF7CDFC0020FEF7CAFCC720FEF7C4FC1E
:103D70000020FEF7C4FC0020FEF7C1FC0020FEF787
:103D8000BEFC0020FEF7BBFCC820FEF7B5FC0020FF
:103D9000FEF7B5FC0020FEF7B2FC0020FEF7AFFCFA
:103DA0000020FEF7ACFCC920FEF7A6FC0020FEF7C1
:103DB000A6FC0020FEF7A3FC0020FEF7A0FC0020DC
:103DC000FEF79DFC0020FEF79AFC0020FEF797FC12
:103DD0000020FEF794FC0020FEF791FC0020FEF787
:103DE0008EFC0020FEF78BFC0020FEF788FC0020F4
:103DF000FEF785FC0020FEF782FC0020FEF77FFC2A
:103E00000020FEF77CFC0020FEF779FCE020FEF7A6
:103E100073FC1620FEF773FC0020FEF770FC1C20DC
:103E2000FEF76DFC0020FEF76AFC2120FEF767FC20
:103E30000020FEF764FC3620FEF761FC0020FEF750
:103E40005EFC4620FEF75BFC0020FEF758FC52208B
:103E5000FEF755FC0020FEF752FC6420FEF74FFCF5
:103E60000020FEF74CFC7A20FEF749FC0020FEF70C
:103E700046FC8B20FEF743FC0020FEF740FC992017
:103E8000FEF73DFC0020FEF73AFCA820FEF737FCC9
:103E90000020FEF734FCB920FEF731FC0020FEF7CD
:103EA0002EFCC420FEF72BFC0020FEF728FCCA20C5
:103EB000FEF725FC0020FEF722FCD220FEF71FFCB7
:103EC0000020FEF71CFCD920FEF719FC0020FEF7AD
:103ED00016FCE020FEF713FC0020FEF710FCF32098
:103EE000FEF70DFC0020FEF70AFCE120FEF704FCC3
:103EF0001620FEF704FC0020FEF701FC1C20FEF754
:103F0000FEFB0020FEF7FBFB2220FEF7F8FB002063
:103F1000FEF7F5FB3620FEF7F2FB0020FEF7EFFB85
:103F20004520FEF7ECFB0020FEF7E9FB5220FEF7F0
:103F3000E6FB0020FEF7E3FB6420FEF7E0FB002039
:103F4000FEF7DDFB7A20FEF7DAFB0020FEF7D7FB59
:103F50008B20FEF7D4FB0020FEF7D1FB9920FEF763
:103F6000CEFB0020FEF7CBFBA820FEF7C8FB00200D
:103F7000FEF7C5FBB920FEF7C2FB0020FEF7BFFB32
:103F8000C420FEF7BCFB0020FEF7B9FBCA20FEF7F9
:103F9000B6FB0020FEF7B3FBD220FEF7B0FB0020FB
:103FA000FEF7ADFBD820FEF7AAFB0020FEF7A7FB2B
:103FB000E020FEF7A4FB0020FEF7A1FBF320FEF7B4
:103FC0009EFB0020FEF79BFBE220FEF795FB052001
:103FD000FEF795FB0020FEF792FB0B20FEF78FFB10
:103FE0000020FEF78CFB1B20FEF789FB0020FEF76C
:103FF00086FB3420FEF783FB0020FEF780FB442085
:10400000FEF77DFB0020FEF77AFB4F20FEF777FBE3
:104010000020FEF774FB6120FEF771FB0020FEF725
:104020006EFB7920FEF76BFB0020FEF768FB882013
:10403000FEF765FB0020FEF762FB9720FEF75FFBB3
:104040000020FEF75CFBA620FEF759FB0020FEF7E0
:1040500056FBB720FEF753FB0020FEF750FBC220B3
:10406000FEF74DFB0020FEF74AFBC720FEF747FB9B
:104070000020FEF744FBD120FEF741FB0020FEF7B5
:104080003EFBD620FEF73BFB0020FEF738FBDD2091
:10409000FEF735FB0020FEF732FBF320FEF72FFB87
:1040A0000020FEF72CFBE320FEF726FB0520FEF7A1
:1040B00026FB0020FEF723FB0A20FEF720FB002052
:1040C000FEF71DFB1C20FEF71AFB0020FEF717FB76
:1040D0003320FEF714FB0020FEF711FB4420FEF70F
:1040E0000EFB0020FEF70BFB5020FEF708FB002024
:1040F000FEF705FB6220FEF702FB0020FEF7FFFA49
:104100007820FEF7FCFA0020FEF7F9FA8820FEF787
:10411000F6FA0020FEF7F3FA9720FEF7F0FA0020F7
:10412000FEF7EDFAA620FEF7EAFA0020FEF7E7FA1E
:10413000B720FEF7E4FA0020FEF7E1FAC220FEF70E
:10414000DEFA0020FEF7DBFAC720FEF7D8FA0020DF
:10415000FEF7D5FAD120FEF7D2FA0020FEF7CFFA0B
:10416000D520FEF7CCFA0020FEF7C9FADD20FEF7D5
:10417000C6FA0020FEF7C3FAF320FEF7C0FA0020CB
:10418000FEF7BDFAE420FEF7B7FA0120FEF7B7FA12
:104190000020FEF7B4FA0120FEF7B1FA0020FEF786
:1041A000AEFA0220FEF7ABFA0020FEF7A8FA2A20AA
:1041B000FEF7A5FA0020FEF7A2FA3C20FEF79FFAD0
:1041C0000020FEF79CFA4B20FEF799FA0020FEF73C
:1041D00096FA5D20FEF793FA0020FEF790FA74201D
:1041E000FEF78DFA0020FEF78AFA8420FEF787FAA0
:1041F0000020FEF784FA9320FEF781FA0020FEF7F4
:104200007EFAA220FEF77BFA0020FEF778FAB320B0
:10421000FEF775FA0020FEF772FABE20FEF76FFA7D
:104220000020FEF76CFAC420FEF769FA0020FEF7C2
:1042300066FACD20FEF763FA0020FEF760FAD3207D
:10424000FEF75DFA0020FEF75AFADD20FEF757FA76
:104250000020FEF754FAF320FEF751FA0020FEF793
:104260004EFAE520FEF748FA0020FEF748FA002053
:10427000FEF745FA0020FEF742FA0020FEF73FFA6B
:104280000220FEF73CFA0020FEF739FA2920FEF75B
:1042900036FA0020FEF733FA3C20FEF730FA002011
:1042A000FEF72DFA4B20FEF72AFA0020FEF727FA38
:1042B0005D20FEF724FA0020FEF721FA7420FEF7B5
:1042C0001EFA0020FEF71BFA8420FEF718FA0020E1
:1042D000FEF715FA9320FEF712FA0020FEF70FFA08
:1042E000A220FEF70CFA0020FEF709FAB320FEF731
:1042F00006FA0020FEF703FABE20FEF700FA0020BF
:10430000FEF7FDF9C420FEF7FAF90020FEF7F7F9F1
:10431000CD20FEF7F4F90020FEF7F1F9D320FEF7E7
:10432000EEF90020FEF7EBF9DC20FEF7E8F90020BB
:10433000FEF7E5F9F320FEF7E2F90020FEF7DFF9DA
:10434000E620FEF7D9F91120FEF7D9F90020FEF793
:10435000D6F93420FEF7D3F90020FEF7D0F9562025
:10436000FEF7CDF90020FEF7CAF97620FEF7C7F96F
:104370000020FEF7C4F97720FEF7C1F90020FEF710
:10438000BEF96620FEF7BBF90020FEF7B8F98820D9
:10439000FEF7B5F90020FEF7B2F99920FEF7AFF964
:1043A0000020FEF7ACF9BB20FEF7A9F90020FEF7CC
:1043B000A6F99920FEF7A3F90020FEF7A0F96620E0
:1043C000FEF79DF90020FEF79AF95520FEF797F9C0
:1043D0000020FEF794F95520FEF791F90020FEF732
:1043E0008EF94520FEF78BF90020FEF788F943206F
:1043F000FEF785F90020FEF782F94420FEF77FF9E9
:104400000020FEF77CF9E720FEF776F93220FEF770
:1044100076F90020FEF773F95520FEF770F90020B9
:10442000FEF76DF97620FEF76AF90020FEF767F9CE
:104430006620FEF764F90020FEF761F96720FEF7B9
:104440005EF90020FEF75BF96720FEF758F90020BF
:10445000FEF755F98720FEF752F90020FEF74FF9D5
:104460009920FEF74CF90020FEF749F9BB20FEF732
:1044700046F90020FEF743F99920FEF740F90020A5
:10448000FEF73DF97720FEF73AF90020FEF737F9FD
:104490004420FEF734F90020FEF731F95620FEF7EC
:1044A0002EF90020FEF72BF92320FEF728F9002033
:1044B000FEF725F93320FEF722F90020FEF71FF959
:1044C0004520FEF71CF90020FEF719F9E820FEF759
:1044D00013F90020FEF713F90020FEF710F99920D8
:1044E000FEF70DF90020FEF70AF98720FEF707F91D
:1044F0000020FEF704F98820FEF701F90020FEF7FE
:10450000FEF87720FEF7FBF80020FEF7F8F86620AB
:10451000FEF7F5F80020FEF7F2F88820FEF7EFF836
:104520000020FEF7ECF8AA20FEF7E9F80020FEF7DD
:10453000E6F8BB20FEF7E3F80020FEF7E0F899204C
:10454000FEF7DDF80020FEF7DAF86620FEF7D7F870
:104550000020FEF7D4F85520FEF7D1F80020FEF732
:10456000CEF85520FEF7CBF80020FEF7C8F844201F
:10457000FEF7C5F80020FEF7C2F84420FEF7BFF8AA
:104580000020FEF7BCF85520FEF7B9F80020FEF732
:10459000B6F8E920FEF7B0F8AA20FEF7B0F8002040
:1045A000FEF7ADF80020FEF7AAF80020FEF7A7F806
:1045B0000020FEF7A1F8AA20FEF7A1F8CF20FEF711
:1045C0009BF80020FEF79BF80020FEF798F80020EB
:1045D000FEF795F80020FEF792F80020FEF78FF81E
:1045E0000020FEF78CF80020FEF789F80020FEF787
:1045F00086F80020FEF783F80020FEF780F8002000
:10460000FEF77DF80020FEF77AF80020FEF777F835
:104610000020FEF774F80020FEF771F80020FEF786
:104620006EF80020FEF76BF8F020FEF765F800202A
:10463000FEF765F85020FEF762F80020FEF75FF8FD
:104640000020FEF75CF80020FEF759F8F320FEF793
:1046500053F80020FEF753F8F920FEF74DF8062036
:10466000FEF74DF81020FEF74AF82920FEF747F82C
:104670000020FEF744F83A20FEF73EF85520FEF7FA
:104680003EF81120FEF738F86420FDF766FF292078
:10469000FEF732F83520FEF72FF80020FEF72FF84E
:1046A0005120FEF729F8FF20FEF729F85320FEF7E6
:1046B00023F82C20FEF723F85520FEF71DF8822062
:1046C000FEF71DF82C20FEF717F802F0E7B8FE48B9
:1046D0008088A0F5AA4110397ED155214FF4704051
:1046E000FEF715F8AA214FF20100FEF710F852214B
:1046F0004FF20200FEF70BF808214FF20300FEF71D
:1047000006F801214FF20400FEF701F80D214FF4E5
:104710003040FDF7FCFF0D214BF20100FDF7F7FFE4
:104720000D214BF20200FDF7F2FF34214FF4364029
:10473000FDF7EDFF34214BF20160FDF7E8FF342176
:104740004BF20260FDF7E3FF0D214FF43140FDF71E
:10475000DEFF0D214BF20110FDF7D9FF0D214BF2C9
:104760000210FDF7D4FF34214FF43740FDF7CFFF9F
:1047700034214BF20170FDF7CAFF34214BF2027075
:10478000FDF7C5FF00214FF43240FDF7C0FF0021C7
:104790004BF20120FDF7BBFF00214BF20220FDF799
:1047A000B6FF24214FF43840FDF7B1FF24214BF62A
:1047B0000100FDF7ACFF24214BF60200FDF7A7FF37
:1047C00001214FF43F40FDF7A2FF0F214FF433408A
:1047D000FDF79DFF0F2100E0FEE34BF20130FDF7F6
:1047E00096FF0F214BF20230FDF791FF34214FF479
:1047F0003940FDF78CFF34214BF60110FDF787FFA0
:1048000034214BF60210FDF782FF08214FF43540AA
:10481000FDF77DFF08214BF20150FDF778FF0821DD
:104820004BF20250FDF773FF03214FF44240FDF7B6
:104830006EFF24214FF43A40FDF769FF24214BF627
:104840000120FDF764FF24214BF60220FDF75FFFF6
:1048500000214FF43C40FDF75AFF78214BF6014010
:10486000FDF755FF00214BF60240FDF750FF0021F8
:104870004FF43D40FDF74BFF78214BF60150FDF71B
:1048800046FF00214BF60250FDF741FF00214FF497
:104890003E40FDF73CFF64214BF60160FDF737FF1A
:1048A00000214FF45140FDF732FF33214DF201104A
:1048B000FDF72DFF00214DF20210FDF728FF3421F6
:1048C0004DF20310FDF723FF00214DF20410FDF718
:1048D0001EFF3A214DF20510FDF719FF00214DF2A0
:1048E0000610FDF714FF4A214DF20710FDF70FFFE8
:1048F00000214DF20810FDF70AFF5C214DF209106E
:10490000FDF705FF00214DF20A10FDF700FF8121A0
:104910004DF20B10FDF7FBFE00214DF20C10FDF7E0
:10492000F6FEA6214DF20D10FDF7F1FE00214DF22D
:104930000E10FDF7ECFEE5214DF20F10FDF7E7FE3E
:1049400001214DF21010FDF7E2FE13214DF211107E
:10495000FDF7DDFE01214DF21210FDF7D8FE5421C6
:104960004DF21310FDF7D3FE01214DF21410FDF7A7
:10497000CEFE82214DF21510FDF7C9FE01214DF248
:104980001610FDF7C4FECA214DF21710FDF7BFFE49
:1049900002214DF21810FDF7BAFE00214DF2191058
:1049A000FDF7B5FE02214DF21A10FDF7B0FE012110
:1049B0004DF21B10FDF7ABFE02214DF21C10FDF76E
:1049C000A6FE34214DF21D10FDF7A1FE02214DF28D
:1049D0001E10FDF79CFE67214DF21F10FDF797FE9C
:1049E00002214DF22010FDF792FE84214DF221109C
:1049F000FDF78DFE02214DF22210FDF788FEA42165
:104A00004DF22310FDF783FE02214DF22410FDF735
:104A10007EFEB7214DF22510FDF779FE02214DF201
:104A20002610FDF774FECF214DF22710FDF76FFE23
:104A300002214DF22810FDF76AFEDE214DF2291009
:104A4000FDF765FE02214DF22A10FDF760FEF2210E
:104A50004DF22B10FDF75BFE02214DF22C10FDF7FD
:104A600056FEFE214DF22D10FDF751FE03214DF2B1
:104A70002E10FDF74CFE10214DF22F10FDF747FED2
:104A800003214DF23010FDF742FE33214DF231107B
:104A9000FDF73DFE03214DF23210FDF738FE6D218A
:104AA0004DF23310FDF733FE00214FF45240FDF775
:104AB0002EFE33214DF20120FDF729FE00214DF29B
:104AC0000220FDF724FE01E0E20B002034214DF22C
:104AD0000320FDF71CFE00214DF20420FDF717FE18
:104AE0003A214DF20520FDF712FE00214DF206207D
:104AF000FDF70DFE4A214DF20720FDF708FE0021CB
:104B00004DF20820FDF703FE5C214DF20920FDF770
:104B1000FEFD00214DF20A20FDF7F9FD81214DF245
:104B20000B20FDF7F4FD00214DF20C20FDF7EFFD09
:104B3000A6214DF20D20FDF7EAFD00214DF20E20D9
:104B4000FDF7E5FDE5214DF20F20FDF7E0FD012128
:104B50004DF21020FDF7DBFD13214DF21120FDF782
:104B6000D6FD01214DF21220FDF7D1FD54214DF269
:104B70001320FDF7CCFD01214DF21420FDF7C7FDF8
:104B800082214DF21520FDF7C2FD01214DF21620C4
:104B9000FDF7BDFDCA214DF21720FDF7B8FD02213A
:104BA0004DF21820FDF7B3FD00214DF21920FDF75D
:104BB000AEFD02214DF21A20FDF7A9FD01214DF2B3
:104BC0001B20FDF7A4FD02214DF21C20FDF79FFDE7
:104BD00034214DF21D20FDF79AFD02214DF21E20D9
:104BE000FDF795FD67214DF21F20FDF790FD022195
:104BF0004DF22020FDF78BFD84214DF22120FDF7A1
:104C000086FD02214DF22220FDF781FDA4214DF207
:104C10002320FDF77CFD02214DF22420FDF777FDD6
:104C2000B7214DF22520FDF772FD02214DF226201D
:104C3000FDF76DFDCF214DF22720FDF768FD022124
:104C40004DF22820FDF763FDDE214DF22920FDF70E
:104C50005EFD02214DF22A20FDF759FDF2214DF2B1
:104C60002B20FDF754FD02214DF22C20FDF74FFDC6
:104C7000FE214DF22D20FDF74AFD03214DF22E209D
:104C8000FDF745FD10214DF22F20FDF740FD0321DA
:104C90004DF23020FDF73BFD33214DF23120FDF781
:104CA00036FD03214DF23220FDF731FD6D214DF22D
:104CB0003320FDF72CFD00214FF45340FDF727FD75
:104CC00033214DF20130FDF722FD00214DF202307B
:104CD000FDF71DFD34214DF20330FDF718FD0021D5
:104CE0004DF20430FDF713FD3A214DF20530FDF78A
:104CF0000EFD00214DF20630FDF709FD4A214DF26F
:104D00000730FDF704FD00214DF20830FDF7FFFCF0
:104D10005C214DF20930FDF7FAFC00214DF20A301A
:104D2000FDF7F5FC81214DF20B30FDF7F0FC002181
:104D30004DF20C30FDF7EBFCA6214DF20D30FDF7E6
:104D4000E6FC00214DF20E30FDF7E1FCE5214DF2CD
:104D50000F30FDF7DCFC01214DF21030FDF7D7FCE0
:104D600013214DF21130FDF7D2FC01214DF212302A
:104D7000FDF7CDFC54214DF21330FDF7C8FC0121A5
:104D80004DF21430FDF7C3FC82214DF21530FDF7D2
:104D9000BEFC01214DF21630FDF7B9FCCA214DF2DF
:104DA0001730FDF7B4FC02214DF21830FDF7AFFCCF
:104DB00000214DF21930FDF7AAFC02214DF21A3004
:104DC000FDF7A5FC01214DF21B30FDF7A0FC0221EF
:104DD0004DF21C30FDF79BFC34214DF21D30FDF7E8
:104DE00096FC02214DF21E30FDF791FC67214DF239
:104DF0001F30FDF78CFC02214DF22030FDF787FCBF
:104E000084214DF22130FDF782FC02214DF2223047
:104E1000FDF77DFCA4214DF22330FDF778FC022143
:104E20004DF22430FDF773FCB7214DF22530FDF72C
:104E30006EFC02214DF22630FDF769FCCF214DF2C8
:104E40002730FDF764FC02214DF22830FDF75FFCAE
:104E5000DE214DF22930FDF75AFC02214DF22A30B5
:104E6000FDF755FCF2214DF22B30FDF750FC0221ED
:104E70004DF22C30FDF74BFCFE214DF22D30FDF7AD
:104E800046FC03214DF22E30FDF741FC10214DF27E
:104E90002F30FDF73CFC03214DF23030FDF737FC9D
:104EA00033214DF23130FDF732FC03214DF2323027
:104EB000FDF72DFC6D214DF23330FDF728FC00216C
:104EC0004FF45440FDF723FC33214DF20140FDF730
:104ED0001EFC00214DF20240FDF719FC34214DF279
:104EE0000340FDF714FC00214DF20440FDF70FFCD8
:104EF0003A214DF20540FDF70AFC00214DF2064033
:104F0000FDF705FC4A214DF20740FDF700FC0021AA
:104F10004DF20840FDF7FBFB5C214DF20940FDF727
:104F2000F6FB00214DF20A40FDF7F1FB81214DF225
:104F30000B40FDF7ECFB00214DF20C40FDF7E7FBC9
:104F4000A6214DF20D40FDF7E2FB00214DF20E408F
:104F5000FDF7DDFBE5214DF20F40FDF7D8FB012108
:104F60004DF21040FDF7D3FB13214DF21140FDF738
:104F7000CEFB01214DF21240FDF7C9FB54214DF249
:104F80001340FDF7C4FB01214DF21440FDF7BFFBB8
:104F900082214DF21540FDF7BAFB01214DF216407A
:104FA000FDF7B5FBCA214DF21740FDF7B0FB02211A
:104FB0004DF21840FDF7ABFB00214DF21940FDF713
:104FC000A6FB02214DF21A40FDF7A1FB01214DF293
:104FD0001B40FDF79CFB00E004E302214DF21C4066
:104FE000FDF795FB34214DF21D40FDF790FB0221AA
:104FF0004DF21E40FDF78BFB67214DF21F40FDF780
:1050000086FB02214DF22040FDF781FB84214DF209
:105010002140FDF77CFB02214DF22240FDF777FB9A
:10502000A4214DF22340FDF772FB02214DF22440F2
:10503000FDF76DFBB7214DF22540FDF768FB02211E
:105040004DF22640FDF763FBCF214DF22740FDF7DF
:105050005EFB02214DF22840FDF759FBDE214DF2A7
:105060002940FDF754FB02214DF22A40FDF74FFB8A
:10507000F2214DF22B40FDF74AFB02214DF22C406C
:10508000FDF745FBFE214DF22D40FDF740FB0321CE
:105090004DF22E40FDF73BFB10214DF22F40FDF766
:1050A00036FB03214DF23040FDF731FB33214DF249
:1050B0003140FDF72CFB03214DF23240FDF727FB79
:1050C0006D214DF23340FDF722FB00214FF4554096
:1050D000FDF71DFB33214DF20150FDF718FB0021B8
:1050E0004DF20250FDF713FB34214DF20350FDF752
:1050F0000EFB00214DF20450FDF709FB3A214DF261
:105100000550FDF704FB00214DF20650FDF7FFFAB4
:105110004A214DF20750FDF7FAFA00214DF20850EE
:10512000FDF7F5FA5C214DF20950FDF7F0FA002188
:105130004DF20A50FDF7EBFA81214DF20B50FDF7CD
:10514000E6FA00214DF20C50FDF7E1FAA6214DF2EE
:105150000D50FDF7DCFA00214DF20E50FDF7D7FAA5
:10516000E5214DF20F50FDF7D2FA01214DF210501A
:10517000FDF7CDFA13214DF21150FDF7C8FA0121C8
:105180004DF21250FDF7C3FA54214DF21350FDF7C2
:10519000BEFA01214DF21450FDF7B9FA82214DF209
:1051A0001550FDF7B4FA01214DF21650FDF7AFFA94
:1051B000CA214DF21750FDF7AAFA02214DF21850FC
:1051C000FDF7A5FA00214DF21950FDF7A0FA0221D2
:1051D0004DF21A50FDF79BFA01214DF21B50FDF7DD
:1051E00096FA02214DF21C50FDF791FA34214DF24E
:1051F0001D50FDF78CFA02214DF21E50FDF787FA83
:1052000067214DF21F50FDF782FA02214DF2205026
:10521000FDF77DFA84214DF22150FDF778FA022145
:105220004DF22250FDF773FAA4214DF22350FDF701
:105230006EFA02214DF22450FDF769FAB7214DF2C2
:105240002550FDF764FA02214DF22650FDF75FFA72
:10525000CF214DF22750FDF75AFA02214DF2285086
:10526000FDF755FADE214DF22950FDF750FA0221E3
:105270004DF22A50FDF74BFAF2214DF22B50FDF77B
:1052800046FA02214DF22C50FDF741FAFE214DF273
:105290002D50FDF73CFA03214DF22E50FDF737FA61
:1052A00010214DF22F50FDF732FA03214DF230500C
:1052B000FDF72DFA33214DF23150FDF728FA032185
:1052C0004DF23250FDF723FA6D214DF23350FDF7C8
:1052D0001EFA00214FF45640FDF719FA33214DF222
:1052E0000160FDF714FA00214DF20260FDF70FFA9C
:1052F00034214DF20360FDF70AFA00214DF20460FB
:10530000FDF705FA3A214DF20560FDF700FA00219C
:105310004DF20660FDF7FBF94A214DF20760FDF7FB
:10532000F6F900214DF20860FDF7F1F95C214DF22C
:105330000960FDF7ECF900214DF20A60FDF7E7F98D
:1053400081214DF20B60FDF7E2F900214DF20C6076
:10535000FDF7DDF9A6214DF20D60FDF7D8F900212A
:105360004DF20E60FDF7D3F9E5214DF20F60FDF728
:10537000CEF901214DF21060FDF7C9F913214DF26C
:105380001160FDF7C4F901214DF21260FDF7BFF97C
:1053900054214DF21360FDF7BAF901214DF214606A
:1053A000FDF7B5F982214DF21560FDF7B0F9012145
:1053B0004DF21660FDF7ABF9CA214DF21760FDF70B
:1053C000A6F902214DF21860FDF7A1F900214DF276
:1053D0001960FDF79CF902214DF21A60FDF797F96B
:1053E00001214DF21B60FDF792F902214DF21C6084
:1053F000FDF78DF934214DF21D60FDF788F902218A
:105400004DF21E60FDF783F967214DF21F60FDF735
:105410007EF902214DF22060FDF779F984214DF2E9
:105420002160FDF774F902214DF22260FDF76FF95A
:10543000A4214DF22360FDF76AF902214DF22460A8
:10544000FDF765F9B7214DF22560FDF760F90221FE
:105450004DF22660FDF75BF9CF214DF22760FDF795
:1054600056F902214DF22860FDF751F9DE214DF287
:105470002960FDF74CF902214DF22A60FDF747F94A
:10548000F2214DF22B60FDF742F902214DF22C6022
:10549000FDF73DF9FE214DF22D60FDF738F90321AE
:1054A0004DF22E60FDF733F910214DF22F60FDF71C
:1054B0002EF903214DF23060FDF729F933214DF229
:1054C0003160FDF724F903214DF23260FDF71FF939
:1054D0006D214DF23360FDF71AF955214FF47040FC
:1054E000FDF715F9AA214FF20100FDF710F952213D
:1054F0004FF20200FDF70BF908214FF20300FDF710
:1055000006F900214FF20400FDF701F9CC214FF418
:105510003140FDF7FCF800214BF20110FDF7F7F8E0
:1055200005214FF43640FDF7F2F870214FF4374073
:10553000FDF7EDF870214BF20170FDF7E8F801215D
:105540004FF43840FDF7E3F803214BF60100FDF777
:10555000DEF803214BF60200FDF7D9F803214BF6E4
:105560000300FDF7D4F802214FF43C40FDF7CFF8DB
:1055700000214BF60140FDF7CAF800214BF602402E
:10558000FDF7C5F8D0214FF44940FDF7C0F80221DE
:105590004CF60110FDF7BBF850214CF60210FDF758
:1055A000B6F850214CF60310FDF7B1F850214CF637
:1055B0000410FDF7ACF800214FF45450FDF7A7F8A4
:1055C00055214FF46850FDF7A2F84FF48850FDF7CD
:1055D00093F87820FCF796FF4FF42450FDF78CF8F1
:1055E00001F05CB9FE488088A0F5134125397DD1D2
:1055F00047F6F001E520FDF78AF84FF480710120AD
:10560000FDF785F84FF4E0610220FDF780F841F2E4
:1056100030010320FDF77BF800210420FDF777F827
:1056200040F202210820FDF772F800210920FDF761
:105630006EF800210A20FDF76AF800210C20FDF722
:1056400066F800210D20FDF762F800210F20FDF71C
:105650005EF800211020FDF75AF807211120FDF710
:1056600056F800211220FDF752F800211320FDF713
:105670004EF800210720FDF74AF841F29061102012
:10568000FDF745F840F227211120FDF740F89D2154
:105690001220FDF73CF84FF4C8511320FDF737F8FE
:1056A00025212920FDF733F80D212B20FDF72FF8B8
:1056B00007213020FDF72BF840F203313120FDF7B0
:1056C00026F803213220FDF722F840F2062135208A
:1056D000FDF71DF808213620FDF719F840F20641C4
:1056E0003720FDF714F84FF4417100E058E03820FE
:1056F000FDF70DF807213920FDF709F840F20261A6
:105700003C20FDF704F808213D20FDF700F80021BA
:105710005020FCF7FCFFEF215120FCF7F8FF00219F
:105720005220FCF7F4FF40F23F115320FCF7EFFF4B
:105730004FF427416020FCF7EAFF01216120FCF7CC
:10574000E6FF00216A20FCF7E2FF00218020FCF741
:10575000DEFF00218120FCF7DAFF00218220FCF728
:10576000D6FF00218320FCF7D2FF00218420FCF724
:10577000CEFF00218520FCF7CAFF10219020FCF706
:10578000C6FF4FF4C0619220FCF7C1FF40F2331115
:105790000720FCF7BCFF22210020FCF7B8FF1FE721
:1057A0008F488088A0F5134128397DD141F28F01BF
:1057B000EC20FCF7ACFF41F23421EF20FCF7A7FF0F
:1057C0004FF480710120FCF7A2FF4FF4E06102204A
:1057D000FCF79DFF41F230010320FCF798FF002108
:1057E0000420FCF794FF40F202210820FCF78FFF11
:1057F00000210920FCF78BFF00210A20FCF787FF1E
:1058000001210C20FCF783FF00210D20FCF77FFF16
:1058100000210F20FCF77BFF00211020FCF777FF11
:1058200007211120FCF773FF00211220FCF76FFF06
:1058300000211320FCF76BFF01210720FCF767FF15
:105840003220FCF78AFE41F290411020FCF75FFF06
:1058500040F227211120FCF75AFF3220FCF77DFE91
:105860008A211220FCF753FF3220FCF776FE4FF41A
:10587000D0511320FCF74BFF06212920FCF747FFEE
:105880000D212B20FCF743FF3220FCF766FE0021A0
:105890002020FCF73CFF00212120FCF738FF3220BC
:1058A000FCF75BFE002100E075E03020FCF72FFFE5
:1058B00040F204613120FCF72AFF40F2053132202A
:1058C000FCF725FF00213520FCF721FF40F60941B8
:1058D0003620FCF71CFF4FF401713720FCF717FF4F
:1058E00040F201313820FCF712FF40F207713920F5
:1058F000FCF70DFF00213C20FCF709FF40F60A21D0
:105900003D20FCF704FF3220FCF727FE0021502049
:10591000FCF7FDFEEF215120FCF7F9FE002152209B
:10592000FCF7F5FE40F23F115320FCF7F0FE4FF478
:1059300027416020FCF7EBFE01216120FCF7E7FE28
:1059400000216A20FCF7E3FE00218020FCF7DFFE47
:1059500000218120FCF7DBFE00218220FCF7D7FE2E
:1059600000218320FCF7D3FE00218420FCF7CFFE2A
:1059700000218520FCF7CBFE10219020FCF7C7FE0C
:105980004FF4C0619220FCF7C2FE40F233110720B1
:10599000FCF7BDFE24E612488088A0F513412039AB
:1059A0007ED10846FCF7B3FE4FF480710120FCF76E
:1059B000AEFE4FF4E0610220FCF7A9FE41F2300197
:1059C0000320FCF7A4FE00210420FCF7A0FE40F217
:1059D00002210820FCF79BFE0021092002E00000C4
:1059E000E20B0020FCF793FE00210A20FCF78FFE5B
:1059F00001210C20FCF78BFE00210D20FCF787FE17
:105A000000210F20FCF783FE3220FCF7A6FD40F2B8
:105A100001110720FCF77BFE3220FCF79EFD4FF4BE
:105A200086511020FCF773FE07211120FCF76FFE52
:105A30004FF488711220FCF76AFE4FF43061132096
:105A4000FCF765FE00212920FCF761FE44F21001FD
:105A50002B20FCF75CFE00215020FCF758FEEF21C4
:105A60005120FCF754FE00215220FCF750FE40F27A
:105A70003F115320FCF74BFE4FF41C516020FCF704
:105A800046FE01216120FCF742FE00216A20FCF75E
:105A90003EFE00218020FCF73AFE0021812000E03C
:105AA00030E0FCF734FE00218220FCF730FE0021BC
:105AB0008320FCF72CFE00218420FCF728FE002127
:105AC0008520FCF724FE10219020FCF720FE002109
:105AD0009220FCF71CFE01219320FCF718FE4FF4E6
