:020000040800F2
:10000000F01D002081B00008ED770008EF770008B0
:10001000F3770008F7770008FB770008000000007E
:10002000000000000000000000000000FF77000852
:100030000178000800000000B7D10008DD200008AA
:100040009BB000089BB000089BB000089BB0000864
:100050009BB000089BB00008397A00089B7A000822
:10006000FF7A0008677B0008CF7B00089BB0000880
:100070009BB000089BB000089BB000089BB0000834
:100080009BB000089BB000089BB000089BB0000824
:100090002F1E0008DF1E00089BB00008D77B000859
:1000A0009BB000089BB000089BB000089BB0000804
:1000B0009BB000084D6F00081D7900089BB0000838
:1000C0009BB000089BB000089BB000089BB00008E4
:1000D0009BB00008297800089BB00008037800084E
:1000E000637C00089BB000089BB000089BB0000830
:1000F0007D6F00089BB000089BB000089BB0000813
:100100009BB000089BB000089BB000089BB00008A3
:100110009BB000089BB000089BB000089BB0000893
:100120009BB000089BB000089BB000089BB0000883
:1001300000F002F800F0B4F80AA090E8000C824445
:100140008344AAF10107DA4501D100F0A9F8AFF222
:10015000090EBAE80F0013F0010F18BFFB1A43F0A5
:100160000103184720190100401901000A444FF00B
:10017000000C10F8013B13F0070408BF10F8014B06
:100180001D1108BF10F8015B641E05D010F8016B4B
:10019000641E01F8016BF9D113F0080F1EBF10F8AF
:1001A000014BAD1C0C1B09D16D1E58BF01F801CBD2
:1001B000FAD505E014F8016B01F8016B6D1EF9D555
:1001C0009142D6D37047000000230024002500266A
:1001D000103A28BF78C1FBD8520728BF30C148BFAA
:1001E0000B6070476E290DF01D8370290DF06D8630
:1001F000662910F08284652910F07F84672910F049
:100200007C84612910F07B8403681B0A28BF41F0BD
:10021000800169290DF0808064290DF07D807529A9
:100220000DF07A806F290DF0FB8578290DF0398665
:10023000E9290DF09585E4290DF09285F5290DF059
:100240008F85EF290DF0F885F8290DF038860368C1
:10025000DB0928BF41F0800163290EF07580732906
:100260000EF07A80E3290EF08580F3290EF08A8063
:10027000002070471FB59DE803000DF0D7F90DF081
:1002800033FE0400002000210FF0C0FA401C606023
:10029000002000210FF0A4FAE0601FBD10B510BDD2
:1002A0000EF00AF91146FFF7E5FF07F083FA0EF0AA
:1002B00031F903B4FFF7F2FF03BC0EF09FF9000021
:1002C0002DE9F05F04460D4692469B4652465B463A
:1002D000204629460FF08AFE02D22046294601E038
:1002E0005046594606460F460AA80FC80FF07EFE34
:1002F00002D2DDE90A0101E0DDE90C018046894610
:1003000042464B46304639460FF070FE03D2304627
:100310003946BDE8F09F40464946FAE72DE9FF4FD0
:1003200081B00399019810F073FB814603990198FD
:1003300010F06EFB4946009010F062FA804610F013
:1003400067F806460F460499029810F061FB814653
:100350000499029810F05CFB4946009010F050FAA6
:10036000804610F055F882468B4652465B46304632
:1003700039460FF093FA80460FF00CFA04460D460A
:100380002046294605B0BDE8F08F2DE9FF470299C8
:10039000009810F03DFB8146002110F0FDFA04D2D8
:1003A0000299009810F034FB05E00299009810F0D3
:1003B0002FFB80F00040804610F02AF80646FE4AE7
:1003C000FE4B0FF0D9FC02D8FD4CFE4D11E0009918
:1003D000029810F01DFB07460199039810F018FBD6
:1003E0008046394610F0AEF8064610F011F8044683
:1003F0000D462046294604B0BDE8F0872DE9FF47A9
:100400000299009810F004FB8146002110F0C4FA14
:1004100004D20299009810F0FBFA05E002990098C6
:1004200010F0F6FA80F0004080460FF0F1FF06462B
:10043000E14AE24B0FF0A0FC0AD80399019810F0B2
:10044000ABFA02D2DE4CE04D3CE0DD4CDD4D39E054
:100450000099029810F0DCFA81460199039810F097
:10046000D7FA8246494610F06DF806460FF0D0FFE5
:1004700007460EF0E1FF04460D460299009810F081
:100480008BFA0DD20399019810F086F908D2CC4A64
:10049000CE4B204629460FF001FA04460D4611E0E6
:1004A0000299009810F078FA0CD20399019810F094
:1004B00073FA07D2C24AC54B204629460FF0BEFE4A
:1004C00004460D462046294604B0BDE8F0872DE9D4
:1004D000FF5F8CB014461D461AAE96E8C003324644
:1004E0003B46304639460FF083FC22462B46CDE989
:1004F0000601204629460FF07BFCCDE90401DDE929
:1005000006230FF0CBF9CDE908010FF043F9CDE94F
:100510000A010D980FF07CFF32463B46CDE9000101
:100520000FF066FCCDE904010C980FF071FF224634
:100530002B46CDE900010FF05BFCCDE90201DDE9BE
:1005400004230FF0ABF942464B46CDE906010FF00C
:10055000A5F900221346CDE908010FF047FD20D28E
:100560000D980FF055FF32463B46CDE902010FF0E2
:100570003FFCCDE906010C980FF04AFF22462B46BE
:10058000CDE902010FF034FCCDE90401DDE90623D9
:100590000FF084F942464B46CDE908010FF07EF991
:1005A00021E00D980FF034FF32463B46CDE90201C1
:1005B0000FF01EFCCDE906010C980FF029FF224632
:1005C0002B46CDE902010FF013FCCDE90401DDE972
:1005D00006230FF063F942464B46CDE908010FF0C0
:1005E0005DF981F000418246DDE90A230FF012FA3D
:1005F00010B0BDE8F09F2DE9FF4F85B00899139822
:1006000010F006FA82460FF003FF04460D461299D9
:10061000079810F0FDF982460FF0FAFE06460F46E5
:100620001399079810F0ECF883460899129810F087
:10063000E7F85946049010F0EBF982460FF0E8FE17
:100640008046894622462B468DE8C003DDE9050138
:10065000FFF73DFF09B0BDE8F08F2DE9FF4F89B0EE
:10066000DDE9164526462F4600215948CDE90610FA
:100670000C980FF0CDFE82468B460B980FF0C8FE0B
:1006800085F00043A0464246CDE900010FF0B0FBE3
:1006900052465B46CDE902010FF000F9CDE90401B5
:1006A000DDE90401CDE90201DDE9060132463B4600
:1006B000CDE90001DDE90901FFF709FF0DB0BDE853
:1006C000F08F2DE9FF4794B0824620AC94E8F00308
:1006D00032463B46304639460FF08AFB22462B46CF
:1006E000CDE90A01204629460FF082FBCDE9080139
:1006F000DDE90A230FF0D2F842464B46CDE90E0160
:10070000204629460FF074FBCDE90A0116980FF038
:100710007FFE32463B46CDE90201204629460FF0D6
:1007200067FBCDE90001DDE902230FF061FBCDE9B4
:10073000060115980FF06CFE32463B46CDE90201EA
:10074000304639460FF054FBCDE90001DDE90223C4
:100750000FF04EFBCDE90401DDE906230FF06EFD3D
:10076000CDE90801DDE90A230FF068FDCDE90C01B0
:10077000DDE90E230FF04EF9CDE910010FF05CF822
:10078000129032463B46304639460FF031FB224646
:100790002B46CDE90A01204629460FF029FBCDE979
:1007A0000801DDE90A230FF079F842464B46CDE90E
:1007B0000E01304639460DE07B14AE47E17A943F96
:1007C000EA2E4454FB21F93FFB21F9BFFB210940EC
:1007D0000000F0BF0FF00CFBCDE90A0115980FF0F7
:1007E00017FE32463B46CDE90201204629460FF06E
:1007F000FFFACDE90001DDE902230FF0F9FACDE9B6
:10080000060116980FF004FE22462B46CDE90201A0
:10081000204629460FF0ECFACDE90001DDE902237C
:100820000FF0E6FACDE90401DDE906230FF006FD3D
:10083000CDE90801DDE90A230FF000FDCDE90C0147
:10084000DDE90E230FF0E6F8CDE910010EF0F4FF1C
:100850001390DDE91201CAE9000118B0BDE8F08784
:100860000FB42DE9F04F89B082461699189810F010
:10087000CFF883460FF0CCFD04460D461799159826
:1008800010F0C6F883460FF0C3FD06460F461899D0
:1008900015980FF0B5FF0690DDE916100FF0B0FFC8
:1008A0000590069910F0B4F883460FF0B1FD80462C
:1008B00089468DE8F00307A8DDE91312FFF701FF71
:1008C000DDE90701CAE9000109B0BDE8F00F5DF8F4
:1008D00014FB0FB42DE9F0478CB08246DDE91A45D0
:1008E00026462F4600211C48CDE9081018980FF025
:1008F0008FFDCDE9040117980FF08AFD804685F041
:10090000004042460B46CDE90040204601990FF0D9
:100910006FFACDE90201DDE904230EF0BFFFCDE956
:100920000601DDE90601CDE90401DDE908013446EF
:100930003D46CDE90067CDE902010AA8DDE91512BF
:10094000FFF7BFFEDDE90A01CAE900010CB0BDE80E
:10095000F0075DF814FB00000000F0BF002011E07C
:10096000002100EB4002A04B03EBC202D16000EB80
:10097000400203EBC202116100EB400203EBC20232
:100980005161401C994909788842E9DB0021984A65
:100990001160984A1160984A1160984A1160984A0B
:1009A0001160984A1160002006E00022964B03EB8C
:1009B000C0031A605A60401C0528F6DB70470FB46C
:1009C0002DE9F84F0446002500260027A8464FF0E1
:1009D0007E500C990FF0B6FD83464FF07E510FF01C
:1009E00043FD82460D990FF03FFD81460B990FF0B4
:1009F00007FF05464FF080400D990FF001FF834639
:100A00004FF07E510FF030FD81460B9880F0004A88
:100A1000494650460FF0F4FE06460D990B980FF02C
:100A2000EFFE0746384610990FF0EAFE0090304678
:100A30000F990FF0E5FE8246294620460FF0E0FEB2
:100A4000834651460FF010FD814600990FF00CFDD2
:100A5000804641460E980FF007FD0E900F981090BB
:100A60000F940E98BDE8F80F5DF814FB0FB42DE954
:100A7000F84F0446002500260027A8464FF07E5078
:100A80000C990FF05FFD83464FF07E510FF0ECFCA8
:100A900082460D990FF0E8FC81460B990FF0B0FEED
:100AA00005464FF080400D990FF0AAFE83464FF0A7
:100AB0007E510FF0D9FC81460B9880F0004A4946E0
:100AC00050460FF09DFE06460D990B980FF098FECC
:100AD00007464848016838460FF092FE00904448A7
:100AE000016830460FF08CFE8246294620460FF002
:100AF00087FE834651460FF0B7FC814600990FF000
:100B0000B3FC804641463C4800680FF0ADFC3A49D2
:100B1000086037480068374908603548046036483F
:100B20000068BDE8F80F5DF814FB0FB42DE9F84F2D
:100B30000446002500260027A8464FF07E500C9959
:100B40000FF000FD83464FF07E510FF08DFC824682
:100B50000D990FF089FC81460B990FF051FE054667
:100B60004FF080400D990FF04BFE83464FF07E51C1
:100B70000FF07AFC81460B9880F0004A49465046B7
:100B80000FF03EFE06460D990B980FF039FE074612
:100B90001B48016838460FF033FE00901748016883
:100BA00030460FF02DFE8246294620460FF028FEE3
:100BB000834651460FF058FC814600990FF054FCD3
:100BC000804641460F4800680FF04EFC0D49086012
:100BD0000A4800680A490860084804600948006833
:100BE000BDE8F80F5DF814FB640000200C01002044
:100BF000F4000020F8000020FC000020000100208C
:100C00000401002008010020080A00201FB5E34865
:100C1000DDE9001412C0E2480260E24803601FBD33
:100C20002DE9F04F8FB00025AB4600200A90DB483D
:100C30000CC8DD4803C8FFF7E1FB07460EF0FCFDDA
:100C40000E90D9488168D64800680FF0E1FE0C90FC
:100C5000D2480CC8D44803C8FFF760FB07460EF023
:100C6000EBFD0B900CE00C980FF0D2FB0746CF4A3F
:100C7000CF4B0FF0E3FACDE908010EF0DDFD0C904B
:100C80000C980FF0C5FB0746C84ACA4B0FF0AEF9E7
:100C9000E9D30CE00C980FF0BBFBC44AC44BCDE980
:100CA00008010EF0FBFD07460EF0C6FD0C900C98F7
:100CB0000FF0AEFB0746BD4ABF4B0FF05DF8E9D31E
:100CC000BE48D0E91B12406FCDE900120290BB482C
:100CD00060300EC80C98FFF7C9FE0746B8490FF000
:100CE0008FFD8346B5487830D0E903124069CDE9DD
:100CF00000120290B14878300EC80B98FFF715FF2C
:100D00000A90B048016858460FF046FE03D2AD483D
:100D1000D0F800B00CE0AB48006880F000475946BE
:100D200038460FF039FE03D2A648006880F0004B29
:100D30000A9D9C48016828460FF02EFE02D2994871
:100D400005680CE09748006880F00047294638465F
:100D50000FF022FE03D29348006880F000450E9801
:100D60000FF056FB07460EF077FCCDE9060128464A
:100D70000FF04EFBCDE90401DDE906230FF038F852
:100D8000CDE908010EF058FD04460E980FF040FB27
:100D9000CDE904010EF0AEFCCDE9060128460FF0C6
:100DA00037FB0746DDE906230FF022F8CDE90801FD
:100DB0000EF042FD06467C48D0F808A050460FF0E1
:100DC00027FB07460EF096FCCDE9020130460FF0F6
:100DD0001FFBCDE90001DDE902230FF009F8CDE9A1
:100DE000060150460FF014FB07460EF035FCCDE926
:100DF000020120460FF00CFBCDE90001DDE90223E2
:100E00000EF0F6FFCDE90401DDE906230EF046FD04
:100E1000CDE908010EF010FD0D9050460FF0F8FAE4
:100E2000CDE900010EF018FC0746884630460FF069
:100E3000EFFA3A464346CDE902010EF0D9FFCDE97B
:100E4000060150460FF0E4FA07460EF053FC84F01A
:100E50000047CDE9020138460FF0DAFACDE900018A
:100E6000DDE902230EF0C4FFCDE90401DDE906232C
:100E70000EF014FDCDE908010EF0DEFC81460FB046
:100E8000BDE8F08F2DE9F05F4FF6FF7000F0BAF883
:100E9000FFF764FD4C4903C90EF0CEFC8146434A7E
:100EA000444B4A4903C90EF0A3FF07460022484BB2
:100EB0000EF0B0FD05460EF0BFFC04464B46224640
:100EC000444803C8FFF7A2FE63E0FFF7A9FE8221B2
:100ED000002000F0B2FB40A000F0D2FB3D480CC85F
:100EE000314803C8FFF71AFA05460EF0A5FC044680
:100EF00000F014FC37480CC82B4803C8FFF70EFA63
:100F000004460022384B0EF037FF3FD2274A294BC8
:100F10002E4903C90EF06CFF824600222C4B0EF0C6
:100F200079FD06460F46204988680FF071FA804621
:100F300032463B460FF082F904462C4A2C4B0EF009
:100F40001BFF23D2194A1B4B204903C90EF050FF47
:100F5000804600221E4B0EF05DFD04460D461249F0
:100F600088680FF055FA064622462B460FF066F9C0
:100F700082461E4A1F4B0FF039F807D200201E4947
:100F800008601E4908601E49086003E00F2001F058
:100F900002F99AE700BFBDE8F09F000010010020B1
:100FA000180100201C010020300A0020EA2E4454C1
:100FB000FB211940FB210940FB2109C064000020EE
:100FC00000007A4420010020380100203001002078
:100FD00000806640240100206E6F775F646973743F
:100FE000616E63653A000000000049407B14AE4723
:100FF000E17A943FE17A94BF0800002004000020C9
:101000000000002070B504460026F7480588408897
:101010004543F548808846F60401884216D1F248D7
:101020008079012812D10020EF4988712A20488157
:101030002B2088810021084601F0B4F90120EA49FB
:1010400088712B2048812A20888103E000210846EE
:1010500001F0A8F901F089F9002602E0E3480480D4
:10106000761CAE42FAD370BD2DE9FC5F05460E46F4
:1010700017469846DDF8309000200190DA488088C5
:1010800046F60401884229D1D7488079012825D124
:10109000AB463546D4480088C01B401E86B2474642
:1010A000D1480088A0EB0B00401E1FFA80F80020FA
:1010B000CD4988712A2048812B20888143463A46B1
:1010C00031462846CDF80090FFF7CEFF0120C649F3
:1010D00088712B2048812A2088811CE0781B401CC5
:1010E00080B20190344614E02146284601F05AF9B6
:1010F00001F03BF94FF0000A06E0484601F01DF907
:101100000AF101001FFA80FA01988245F5DB601CA4
:1011100084B24445E8DDBDE8FC9F2DE9F84F074661
:101120000D4690469946DDF828B0A8EB0700401C14
:1011300080B20090A9EB0500401C1FFA80FA002441
:1011400015E0281981B2384601F02CF901F00DF9AB
:10115000002607E004FB0A603BF81000A349088062
:10116000701C86B200988642F4DB601C84B2544541
:10117000E7DBBDE8F88F2DE9FF4F85B081468A4651
:101180000020049003900798A0EB09050898A0EBB5
:101190000A06CDF80890CDF804A0002D01DD012746
:1011A00005E00DB9002702E04FF0FF376D42002E39
:1011B00002DD4FF0010806E016B94FF0000802E02A
:1011C0004FF0FF387642B54201DD2C4600E0344650
:1011D0004FF0000B21E0019A91B2029A90B201F017
:1011E000CDFB04982844049003983044039004985D
:1011F000A04205DD0498001B049002983844029038
:101200000398A04205DD0398001B03900198404419
:1012100001900BF101001FFA80FB601C8345DADDB1
:1012200009B0BDE8F08F2DE9F04104460D461646A1
:101230001F462B46324629462046FFF79CFF3B4679
:10124000224629462046FFF796FF3B46324639465E
:101250002046FFF790FF3B46324629463046FFF7CF
:101260008AFFBDE8F0812DE9F04706460F4690461B
:10127000002445460320A0EB48093CE07A1B91B2CC
:10128000321990B201F07AFB3A1B91B2721990B206
:1012900001F074FB3A1991B2721990B201F06EFB31
:1012A0007A1991B2321990B201F068FB7A1991B2B1
:1012B000321B90B201F062FB3A1991B2721B90B2EC
:1012C00001F05CFB7A1B91B2321B90B201F056FB2D
:1012D0003A1B91B2721B90B201F050FB641CB9F141
:1012E000000F03DAA000801D814404E0601B800031
:1012F0000A3081446D1EAC42C0DDBDE8F0872DE9A7
:10130000F84F05460F4690461E4600973848B0F8FD
:101310000090A8F1200000F0FF080A9800284ED1A4
:10132000002449E00C2E07D108EB4800314901EBBD
:10133000800010F804A004E02F4800EB081010F81B
:1013400004A04FF0000B31E00AF0800018B12848EB
:10135000A0F8009003E02948008825490880394614
:10136000284601F00BFB4FEA4A604FEA106A781CEE
:1013700087B21D480088A84204DC1D48A0F80090F0
:10138000BDE8F88F0098381AB0420BD1009F681C56
:1013900085B215480088A84203DC1548A0F80090E3
:1013A000EEE706E00BF1010000F0FF0BBBF1080FC8
:1013B000CADB00BF601CC4B2B442B3DB51E00024FE
:1013C0004DE00C2E07D108EB48000A4901EB8000E4
:1013D00010F804A004E0084800EB081010F804A07E
:1013E0004FF0000B35E00000BA0A00200008006C46
:1013F000420300200C0C0108801001084403002067
:101400000AF0800018B13946284601F0B7FA4FEAD1
:101410004A604FEA106A781C87B2FE484088A842AA
:1014200003DCFD48A0F80090AAE70098381AB04203
:101430000BD1009F681C85B2F6480088A84203DCE7
:10144000F548A0F800909BE706E00BF1010000F0E2
:10145000FF0BBBF1080FD3DB00BF601CC4B2B4426A
:10146000AFDBED48A0F8009000BF89E710B5024659
:10147000012000E050430B00A1F10104E1B2F9D1D9
:1014800010BD2DE9FF4F81B0074691461E460E9DC7
:101490004FF0000A002439E0301B401EC1B20A2080
:1014A000FFF7E4FFB9FBF0F00A21B0FBF1F201FB1A
:1014B0001208BAF1000F16D1701EA04213DDB8F168
:1014C000000F0ED10020AB4605EBDB71491001FB8C
:1014D0000471009088B22B4620220299FFF70FFF7B
:1014E00012E04FF0010A0020AB4605EBDB7149101A
:1014F00001FB0471009088B208F13001CAB22B469A
:101500000299FFF7FCFE00BF601CC4B2B442C3DB0B
:1015100005B0BDE8F08F2DE9FF4F83B00646924637
:101520001F46DDE910480020029000254DE0781BA1
:10153000401EC1B20A20FFF799FFBAFBF0F00A2162
:10154000B0FBF1F201FB1209029850BB781EA842D1
:1015500027DDB9F1000F22D108F0800078B108F042
:101560000100A34604EBDB71491001FB056100900B
:1015700088B2234630220499FFF7C1FE0EE008F03E
:101580000100A34604EBDB71491001FB05610090EB
:1015900088B2234620220499FFF7B1FE13E0012010
:1015A000029008F00100A34604EBDB71491001FB37
:1015B0000561009088B209F13001CAB2234604994E
:1015C000FFF79DFE00BF681CC5B2BD42AFDB07B090
:1015D000BDE8F08F2DE9F84F04460D469046994638
:1015E000DDE90A6704F0FF0A08EB04001FFA80F83F
:1015F00009EB05001FFA80F916E0444502DB54466A
:10160000A81985B24D4500DB14E0002000903A781F
:10161000334629462046FFF772FE304606EBD0716E
:1016200004EB61018CB27F1C38787E2802DC3878AC
:101630002028E2DA00BFBDE8F88F784A1070784AB7
:1016400011700022774B1A707047F8B505461024C8
:101650000020264604EBD6714910724A0090127899
:101660006E4B1B7801FB023023462A466C490978F1
:10167000FFF745FE6B480078401C6A490870F8BDCA
:1016800010B5044603E02078FFF7DFFF641C2078E4
:101690000028F8D110BD0FB400B5A1B023A8209048
:1016A0006846209A22990BF00FFE00202090684691
:1016B000FFF7E6FF21B05DF814FB30B502460025C8
:1016C000594932B9302001F8010B00200870564802
:1016D00030BD002A03DA2D2001F8010B5242534B92
:1016E0000DE092FBF3F404B935B104F1300001F8D8
:1016F000010B04FB132201250A2093FBF0F3002BBE
:10170000EFDC002008704848E2E770B50446204648
:10171000FFF7D3FF0546FFF7B3FF70BD2DE9FC418E
:1017200005460026002128460FF036F804D22D2069
:10173000FFF78BFF85F0004528460EF0C5FF0746F2
:10174000FFF7E3FF28460EF0BFFF80460EF0F8FFDC
:10175000074629460FF051F9054600241CE034499C
:1017600028460FF04DF8054628460EF0ADFF303004
:10177000C0B20DF804001DF80400302800D0661C2B
:1017800028460EF0A1FF80460EF0DAFF07462946F4
:101790000FF033F90546641C032CE0DB16B12E2054
:1017A000FFF753FF002404E01DF80400FFF74DFF8E
:1017B000641CB442F8DB344603E02020FFF745FF09
:1017C000641C062CF9DBBDE8FC812DE9F0470546D9
:1017D0000E46154C002128460EF0DEFF07D21549B3
:1017E00028460FF0D9F802D22D2004F8010B284624
:1017F0000EF06AFF8046FFF760FF07463946204635
:101800000BF08AFE38460BF0ABFE0444002E47DD99
:101810002E2011E0BA0A00204203002040010020DF
:1018200041010020420100203C0A002000CA9A3BEE
:1018300000002041000080BF04F8010B0021284671
:101840000EF0AAFF01D285F0004528460EF03CFFBD
:1018500082460EF075FF814629460FF0CEF8054608
:101860004FF0000817E0104928460EF0C9FF054662
:1018700028460EF029FF303004F8010B28460EF000
:1018800023FF82460EF05CFF814629460FF0B5F833
:10189000054608F10108B045E5DB0020207000BFD7
:1018A0000248BDE8F0870000000020413C0A00200B
:1018B000FEB506460C465D4AD2E900109268CDE9B5
:1018C00001020091701E5DF82070002515E00025D2
:1018D00014F8011B384609F0E3F800E06D1C802184
:1018E000384609F04BF918B94FF6FF708542F5D329
:1018F00040F6FF70854200D300BF20780028E6D173
:10190000FEBD70B50446D4E912532A4648A12046CC
:101910000BF0ECFC21460120FFF7CAFF00202070ED
:1019200070BD2DE9F04788B08246444988680EF0C2
:101930006FFD04460D46414948680EF069FD0646B4
:101940000F463E4908680EF063FD80468946DAE995
:101950001201CDE90089CDE90267CDE90445CDE961
:1019600006019AF8402036A150460BF0BFFC5146C4
:101970000320FFF79DFF00208AF8000008B0BDE8B3
:10198000F08770B50446354A354BD4E912512846E4
:101990000DF084FFC4E912012046616D884770BDD7
:1019A00010B560200BF03AFC04460021A164E1640C
:1019B000002020702B482065AFF299006065AFF2DF
:1019C000BD00A065204610BD10B5044620460BF0B2
:1019D00054FC10BD2DE9FE4307460E469046134ABF
:1019E0000C3207CA8DE80700781E5DF820900024AD
:1019F000002500BF15E0315D484609F051F800E0D0
:101A00006D1C8021484609F0B9F818B94FF6FF70EF
:101A10008542F5D340F6FF70854200D300BF601CBD
:101A2000C4B24445E7DBBDE8FE830000F40B0108C7
:101A300028252E31662C32290A000000300A0020A9
:101A40002825642C252E32662C252E36662C252E34
:101A500034662C252E34662C31290A009A999999DE
:101A60009999B93F831900082DE9F34F85B08A464B
:101A7000002004907E48029001907E4948680EF054
:101A80005FFE0746504601990EF0BAFE8046394681
:101A90000EF0B6FE0546029905980EF0B1FE064618
:101AA00029460EF0E1FC74490860744948680EF05C
:101AB00047FE0746504601990EF0A2FE8046394681
:101AC0000EF09EFE0546029905980EF099FE064618
:101AD00029460EF0C9FC6A4908606A4801686648F0
:101AE00000680EF095FF0446674801686448006886
:101AF0000EF08EFF8146002148460EF04DFF01D2C8
:101B0000484601E089F000400546002120460EF0DD
:101B100043FF01D2204601E084F0004006462946FA
:101B20000EF03AFF09D2002120460EF035FF01D217
:101B300020460BE084F0004008E0002148460EF00B
:101B40002BFF01D2484601E089F0004004904A484A
:101B500000684C4908604A4800684B490860002109
:101B6000454800680EF018FF02D24348006803E0C1
:101B70004148006880F0004000900EF049FC0746A4
:101B8000424A434B0EF034F905460DF055FE8346AC
:101B900000213B4800680EF0FFFE02D23848006882
:101BA00003E03748006880F0004000900EF030FC01
:101BB0000746364A364B0EF01BF905460DF03CFE43
:101BC0000390344958460EF0E7FE01D2DFF8C4B066
:101BD000314958460EF0E0FD01D24FF0000B2D497F
:101BE00003980EF0D9FE01D22A4803902A4903989F
:101BF0000EF0D2FD01D2002003901F4800680EF0C5
:101C000007FC0546002213460EF0B6F803D2042066
:101C10002249086003E004202049091D0860184893
:101C200000680EF0F5FB0546002213460EF0A4F8FE
:101C300003D208201949086003E008201749091D4C
:101C4000086058460EF05CFD05460A4908782A46A9
:101C5000134904F0C8FD03980EF052FD05460749EC
:101C600008782A460E4904F0BEFD07B0BDE8F08FA3
:101C7000000080BF44010020600100204C010020D2
:101C800064010020680100206C010020CDCCCCCC88
:101C9000CCAC50400000FA450000FA431008014067
:101CA0000000484208B501208DF8030014208DF88B
:101CB000000000208DF801008DF80200684606F053
:101CC00006F915208DF8000000208DF80100012094
:101CD0008DF80200684606F0FAF808BD08B5012143
:101CE000084607F02FFE0121082007F02BFE0121F6
:101CF000480607F034FE01214FF4EA1007F037FCE4
:101D00004FF48070ADF8000048208DF8030069465C
:101D1000A44807F05BFB4FF40070ADF800001820FA
:101D20008DF8030003208DF8020069469D4807F0F6
:101D30004DFB08BD0EB50121480607F010FE9A487C
:101D400006F02EF9684606F04FFA00208DF80600DE
:101D50008DF807008DF808008DF809008DF80A004D
:101D600001208DF80B0000208DF802008DF8030093
:101D700001208DF8040002208DF805000C20ADF83C
:101D800000006946884806F024F90EBD7FB500249E
:101D9000002601208DF80B0000208DF80C0001209A
:101DA0008DF80D0000BF23E004EB84007F4911F89B
:101DB0002000D8B98DF80A60701CC6B204EB84000C
:101DC00001EB800040784501ADF80050ADF80250BD
:101DD000ADF80450ADF8065004EB840001EB800030
:101DE000407CADF80800684606F07DF9601CC4B27E
:101DF0006F4800788442D7DB7FBD10B501220221F5
:101E0000694806F06FFC01221021674806F06AFC61
:101E100010BD10B500F0D0F8FFF744FFFFF75EFFEC
:101E2000FFF788FFFFF7B2FFFFF7E7FF10BD10B520
:101E300086B001AA00215C4806F039FB5D49019893
:101E4000085CFF2849D00198085C00EB80005749E6
:101E500001EB8000007A9DF80E1088423DD1554973
:101E60000198085C00EB8000504911F8200001281F
:101E700033D150490198085C00EB80004B4901EBDD
:101E80008000007C012828D14A490198085C00EBB9
:101E90008000464901EB8000407CF0B900240EE050
:101EA0000DF10F00005D434A0199515C01EB810186
:101EB0003E4A02EB810149680855601CC4B29DF896
:101EC0000E00A042ECDC3B4A0199515C01EB810120
:101ED000364A02EB8101C868804706B010BD10B5D4
:101EE00086B001AA0121304806F0E1FA3149019893
:101EF000085CFF2849D00198085C00EB80002B4962
:101F000001EB8000007A9DF80E1088423DD12949EE
:101F10000198085C00EB8000244911F82000A0BB68
:101F200024490198085C00EB8000204901EB800007
:101F3000007C012829D11F490198085C00EB800032
:101F40001A4901EB8000407C01281ED100240EE0DC
:101F50000DF10F00005D174A0199515C01EB810101
:101F6000124A02EB810149680855601CC4B29DF811
:101F70000E00A042ECDC0F4A0199515C01EB81019B
:101F80000A4A02EB8101C868804706B010BD10B54F
:101F9000044600BF2146044806F094F90428F9D00D
:101FA00010BD0000000C01400064004090010020C2
:101FB00070010020B80100200221324A1170002077
:101FC00003E0FF21304A1154401CFF28F9DD0020B6
:101FD00008E000EB80022D4B03EB820252782A4B83
:101FE0009854401C274909788842F2DB704730B585
:101FF00085B004462448005D2249097888420ADBFE
:102000002148005D00EB8000204911F820000128E4
:1020100001D005B030BD1C48005D00EB80001B49BD
:1020200001EB800040780090002001908DF80800BE
:102030008DF809001448005D00EB800001EB800082
:10204000007A8DF80A0000250DE00F48005D00EBD6
:1020500080000E4901EB80004068415D0DF10B00EE
:102060004155681CC5B20848005D00EB8000074977
:1020700001EB8000007AA842E7DC6846FFF787FFA3
:1020800000BFC6E770010020B801002090010020C9
:10209000704738B505460C4600959DF80000074985
:1020A00008709DF80100487008468470E320FFF72F
:1020B0009EFF38BD70477047704700007E010020CA
:1020C00010B509F08FF910BD10B509F0D0F910BDA9
:1020D00010B5044620460AF017FF10BD10B53E4863
:1020E0000078012805D109F02AF909F06EFA09F003
:1020F00041F910BD10B56FF0040005F032FF37480C
:1021000000683749B0FBF1F0364908703348006881
:102110003349B0FBF1F441F28830444305203249A1
:1021200008804FF0E020006940F002004FF0E0210D
:10213000086108464461006940F00100086110BD73
:102140002DE9F047074600264FF0E020D0F8149024
:102150002448007807FB00F800BFFFF7B1FF4FF0FD
:10216000E020856911E04FF0E0208469AC420CD09A
:10217000AC4202D2281B064403E0A9EB0400284429
:1021800006442546464500D300E0ECE700BFFFF7D4
:102190009BFFBDE8F08770B504460F480078A0B1FA
:1021A0001248007888B910480088844206DB0E483F
:1021B000008894FBF0F52846FFF78AFF0A4800885C
:1021C00094FBF0F100FB114084B24FF47A7104FBF0
:1021D00001F0FFF7B5FF70BDE60900209809002067
:1021E00000127A00B8020020BA020020D9090020AB
:1021F0002DE9FF4104460D4660784A4901EB8027EE
:10220000A1780120884086B26278012191404FF682
:10221000FF7202EA8100012107F094FB012142488C
:1022200007F0A5F9ADF80C602078002853D1E078CC
:10223000082808D00C280DD148208DF80F000C205C
:102240008DF8090007E028208DF80F0008208DF890
:10225000090000E000BF00BF03A9384607F0B6F848
:102260000DB906F0BFFCA178012088402F49086015
:10227000A178607807F0C0F9A1780120884001902A
:10228000E078082804D00C2806D18DF8090004E075
:1022900008208DF8090000E000BF00BF00208DF885
:1022A000080001208DF80A0001A806F0A9FC4FF4EF
:1022B000A06005F007FE20798DF8000060798DF8A8
:1022C0000100A0798DF8020001208DF80300684616
:1022D00005F0FDFD13E02078012809D18DF80E00EE
:1022E00010208DF80F0003A9384607F06FF806E0BC
:1022F00028208DF80F0003A9384607F067F8BDE8DD
:10230000FF8110B5002400BF08E0C4EBC401084AF7
:1023100088182146FFF76CFF601CC4B2132CF4DB55
:1023200010BD00000008014000023000140401400C
:10233000BC020020FE4908807047FD49891C0880C6
:102340007047FB48801C00887047F94A1080921C37
:102350001180704710B504462046FFF7EBFF0520BB
:10236000FFF7EEFEFFF7EDFF10BDF2480089F049E0
:1023700008807047EE49891C0880704730B50146D7
:1023800001F01F04C1F34513CA0AE50205EB43152A
:102390001544A8B230BD00BF0100A0F10102D0B2C7
:1023A000FAD1704710B503460C46E248808849F2DE
:1023B0004131884205D0DF48808845F2103188429B
:1023C00014D1DC494889FFF7B5FF1812FFF7B5FFB4
:1023D000D8B2FFF7B2FFD7498889FFF7ABFF2012C9
:1023E000FFF7ABFFE0B2FFF7A8FF5DE0D1488088C0
:1023F00046F6040188421DD1CE488079012804D1D7
:10240000CC480088401EC01A83B2CA494889FFF7E9
:1024100091FF1812FFF791FFD8B2FFF78EFFC54961
:102420008889FFF787FF2012FFF787FFE0B2FFF7E9
:1024300084FF39E0BF48808845F21051884220D19E
:10244000BC494889FFF776FF1812FFF776FFB949B4
:102450004989491C88B2FFF76DFFD8B2FFF76DFFBD
:10246000B4498889FFF766FF2012FFF766FFB1497C
:102470008989491C88B2FFF75DFFE0B2FFF75DFF75
:1024800012E0AC488079012804D1AA480088401E97
:10249000C01A83B2A74948891946FFF756FFA549D4
:1024A00088892146FFF751FF10BD2DE9F04105460F
:1024B0000E4600240027A0469E480088A84203DD5F
:1024C0009C484088B04202DC0020BDE8F0813146E3
:1024D0002846FFF767FF9748808849F241318842D4
:1024E0000BD09448808846F60401884205D0914874
:1024F000808845F21031884203D12E20FFF71AFF61
:102500000DE08C48808845F21051884204D14FF488
:102510003850FFF70FFF02E02220FFF70BFF85483E
:10252000808849F22031884202D10220FFF733FF30
:102530007F48801C008800B100240220FFF72BFF99
:102540007B48801C04887B48808849F2413188425E
:102550000BD07848808845F21031884205D0754804
:10256000808845F2105188420CD10220FFF713FFFA
:102570006F48801CB0F80080E7B24FF6FF7000EAA9
:10258000072708E06B48808846F60401884202D19C
:102590006748801C04886748808849F22531884252
:1025A00016D06448808844F23551884210D0614882
:1025B0008088091F88420BD05E48808848F68911C0
:1025C000884205D05B4880884BF20551884201D192
:1025D00020467AE75748808849F2413188420BD03B
:1025E0005448808845F21031884205D0514880888F
:1025F00045F21051884207D1E012C002B91240EAF8
:10260000411040EAE82060E72046FFF7B7FE5CE7AC
:1026100000B54848808849F2413188420BD045488E
:10262000808846F60401884205D04248808845F2F9
:102630001031884203D12920FFF77CFE0FE03D488E
:10264000808845F21051884204D14FF42450FFF79E
:1026500071FE04E040F273110720FFF776FE00BD23
:1026600000B53448808849F2413188420BD0314866
:10267000808846F60401884205D02E48808845F2BD
:102680001031884203D12820FFF754FE0EE029487C
:10269000808845F21051884204D14FF42050FFF752
:1026A00049FE03E000210720FFF74FFE00BD70B593
:1026B0000446002300261F48807901281ED11D48AA
:1026C000808846F60401884218D0082C15D2DFE82D
:1026D00004F00406080A0C0E101206240DE007246C
:1026E0000BE0042409E0052407E0012405E00024B0
:1026F00003E0032401E0022400BF00BF0D488088EE
:1027000049F24131884211D00A48808846F60401D6
:1027100088420BD00748808845F21031884205D0A6
:102720000448808845F2105188427CD1082C03E08F
:10273000FE07006CBA0A00201CD2DFE804F0040691
:10274000090C0F12151800BF14E043F0800311E0CC
:1027500043F040030EE043F0C0030BE043F02003DE
:1027600008E043F0600305E043F0A00302E043F01B
:10277000E00300BF00BFFC48808845F2105188424A
:1027800002D14FF4585600E03626F748808845F2CB
:102790001031884207D0F448808845F210518842B1
:1027A00001D043F00803F048808846F604018842CF
:1027B00001D143F0020319463046FFF7C6FD03F08E
:1027C000200018B9E848807901280DD1E648008832
:1027D000E5494988884214DAE34805884088E24997
:1027E0000880084645800CE0DF480088DE494988BB
:1027F000884206DDDC4805884088DB4908800846B9
:102800004580D948808845F21051884254D1D64934
:102810004889FFF78FFD0020FFF78FFDD2494989D6
:10282000491C88B200E076E0FFF784FD0020FFF746
:1028300084FDCD494989891C88B2FFF77BFDCA49CF
:102840000988491EC1F30F20FFF777FDC649498962
:10285000C91C88B2FFF76EFDC3490978491EC8B28A
:10286000FFF76BFDC0498889FFF764FD0020FFF783
:1028700064FDBD498989491C88B2FFF75BFD0020D2
:10288000FFF75BFDB8498989891C88B2FFF752FDC3
:10289000B5494988491EC1F30F20FFF74EFDB249E3
:1028A0008989C91C88B2FFF745FDAF498978491E5F
:1028B000C8B2FFF742FD60E0AB494889FFF73AFD37
:1028C0000020FFF73AFD0020FFF737FDA6490988F1
:1028D000491EC1F30F20FFF730FDA3490978491EB7
:1028E000C8B2FFF72AFDA0498889FFF723FD002021
:1028F000FFF723FD0020FFF720FD9B494988491E73
:10290000C1F30F20FFF719FD97498978491EC8B216
:10291000FFF713FD31E0082C1CD2DFE804F00407B8
:102920000A0D0F12151843F0300313E043F01003A3
:1029300010E043F020030DE000BF0BE043F038034C
:1029400008E043F0280305E043F0180302E043F0F9
:10295000080300BF00BF8448808848F68911884278
:1029600004D1112646F24000034302E0032643F45B
:10297000805319463046FFF7E8FC70BD30B5044679
:102980000D4629462046FFF70DFDFFF7EEFC774880
:1029900000887749088030BD30B503460C4615469F
:1029A0007148808849F24131884205D06E4880885C
:1029B00045F21031884214D16B494889FFF7BAFCBF
:1029C0001812FFF7BAFCD8B2FFF7B7FC664988893E
:1029D000FFF7B0FC2012FFF7B0FCE0B2FFF7ADFC50
:1029E0005DE06148808845F21051884220D15E49FF
:1029F0004889FFF79FFC1812FFF79FFC5A49498945
:102A0000491C88B2FFF796FCD8B2FFF796FC5649EE
:102A10008889FFF78FFC2012FFF78FFC52498989C4
:102A2000491C88B2FFF786FCE0B2FFF786FC36E06F
:102A30004D48808846F6040188421DD14A48807975
:102A4000012804D148480088401EC01A83B2464974
:102A50004889FFF76FFC1812FFF76FFCD8B2FFF739
:102A60006CFC41498889FFF765FC2012FFF765FC83
:102A7000E0B2FFF762FC12E03B488079012804D104
:102A800039480088401EC01A83B237494889194620
:102A9000FFF75BFC344988892146FFF756FC324832
:102AA00000893349891E0880881C058030BD10B517
:102AB0000446002C66D12C498871F02008804FF420
:102AC000A07048800846808849F2413188420BD086
:102AD0002548808846F60401884205D0224880882F
:102AE00045F2103188421AD12C201F4908812A2032
:102AF00048812B2088810846808846F60401884258
:102B000005D01948808845F21031884206D14FF42B
:102B1000A070154908804FF4F07048809BE012487F
:102B2000808848F68911884207D122200E49088101
:102B30004E2048814F2088818DE00B48808845F2E7
:102B40001051884216D14FF43050074908814FF494
:102B5000285048814FF42C5088814FF4F070088041
:102B60004FF44870488076E0BA0A00204203002003
:102B70000008006C2220FE49088120204881212085
:102B8000888168E00120FA4988714FF4A0700880BC
:102B9000F02048800846808849F24131884205D0BB
:102BA000F348808845F21031884207D12C20F04943
:102BB00008812A2048812B20888139E0EC488088D0
:102BC00046F60401884207D12C20E94908812B20D0
:102BD00048812A2088812BE0E548808848F68911C1
:102BE000884207D12220E24908814F2048814E20A7
:102BF00088811DE0DE48808845F21051884210D15E
:102C00004FF43050DA4908814FF4285048814FF48E
:102C10002C5088814FF4487008804FF4F070488041
:102C200006E02220D2490881212048812020888185
:102C3000CF48808846F60401884205D0CC48808879
:102C400045F21031884206D14FF4F070C84908802F
:102C50004FF4A07048800020FFF729FD10BD2DE93A
:102C6000FF4F04460D4616461F46A019401E86B269
:102C7000E819401E87B2BE48808849F24131884237
:102C80000BD0BB48808845F21031884205D0B84847
:102C9000808846F60401884220D1B5494889FFF76B
:102CA00049FB2012FFF749FBE0B2FFF746FB301269
:102CB000FFF743FBF0B2FFF740FBAD498889FFF710
:102CC00039FB2812FFF739FBE8B2FFF736FB381261
:102CD000FFF733FBF8B2FFF730FB91E0A4488088A0
:102CE00045F21051884244D1A1494889FFF722FB9F
:102CF0002012FFF722FB9E494989491C88B2FFF741
:102D000019FBE0B2FFF719FB99494989891C88B280
:102D1000FFF710FB3012FFF710FB95494989C91CDA
:102D200088B2FFF707FBF0B2FFF707FB90498889ED
:102D3000FFF700FB2812FFF700FB8D498989491C2A
:102D400088B2FFF7F7FAE8B2FFF7F7FA88498989FE
:102D5000891C88B2FFF7EEFA3812FFF7EEFA8449C1
:102D60008989C91C88B2FFF7E5FAF8B2FFF7E5FADE
:102D700046E07F48807901280ED1A846B9467C48B4
:102D80000088801B401E80B2019079480088001B9B
:102D9000401E80B2009003E0A046B1460195009726
:102DA0007348808848F6891188420DD14FF0440A53
:102DB0004FF0440B48EA09201FFA80F8C14645202D
:102DC00003904620029007E04FF0500A4FF0510B5D
:102DD000522003905320029041465046FFF7B5FA27
:102DE00049465846FFF7B1FA01990398FFF7ADFA43
:102DF00000990298FFF7A9FA29462046FFF7D2FA70
:102E0000BDE8FF8F00B59FB00121080206F08DFDDF
:102E1000012140F2691006F095FD0120ADF878001F
:102E200010208DF87B0003208DF87A001EA95148F0
:102E300006F0CCFA4CF23370ADF8780018208DF81B
:102E40007B0003208DF87A001EA94B4806F0BEFADD
:102E50004FF68070ADF8780018208DF87B000320C5
:102E60008DF87A001EA9454806F0B0FA41F201003B
:102E7000ADF8780018208DF87B0003208DF87A00DB
:102E80001EA93F4806F0A2FA0120089000200990F0
:102E90000F200A9000200B900C900D900E90019046
:102EA0000290032003900020049005900690079064
:102EB00006200F90002010901190102012900020FA
:102EC000139015901490169017904FF4805018900E
:102ED000002019904FF480401A9000201B9008A801
:102EE0001C9001A81D900FA805F056FF0121062097
:102EF00006F0BAF83220FFF74EF901210020FFF763
:102F000024FA3220FFF747F90020FFF723FA184987
:102F1000888008468088FF280ADB084680884FF6AC
:102F2000FF71884204D012488088B0F5134F7DD1DC
:102F3000D320FFF7FFF9FFF704FAFFF702FAFFF7D4
:102F400000FA0B498880084680884FF6FF7101EA35
:102F5000002007498880FFF7F4F90549898808436C
:102F6000034988800846808849F24131884209E057
:102F7000BA0A0020000C0140001401400018014072
:102F8000002001406CD0BF20FFF7D4F9FFF7D9F93A
:102F9000FFF7D7F9FFF7D5F9FFF7D3F9FE49888096
:102FA000084680884FF6FF7101EA0020FA498880C0
:102FB000FFF7C7F9F84989880843F7498880084628
:102FC000808846F6040188424AD0D420FFF7B2F93F
:102FD000FFF7B7F9FFF7B5F9FFF7B3F9EE498880C6
:102FE000084680884FF6FF7101EA0020EA49888090
:102FF000FFF7A7F9E84989880843E7498880084628
:10300000808845F2103188422AD04FF45A40FFF7A9
:1030100091F9FFF796F94FF45B40FFF78BF9FFF753
:1030200090F9DD4988800846808800E018E04FF676
:10303000FF7101EA0020D84988804FF45C40FFF717
:1030400079F9FFF77EF9D44989880843D249888005
:1030500008468088B0F5004F02D145F210508880B4
:10306000CD48808849F2413188427CD1CF20FFF79A
:1030700061F90020FFF761F9C120FFF75EF9302008
:10308000FFF75BF9ED20FFF755F96420FFF755F9DD
:103090000320FFF752F91220FFF74FF98120FFF7C5
:1030A0004CF9E820FFF746F98520FFF746F9102094
:1030B000FFF743F97A20FFF740F9CB20FFF73AF901
:1030C0003920FFF73AF92C20FFF737F90020FFF7F6
:1030D00034F93420FFF731F90220FFF72EF9F720F9
:1030E000FFF728F92020FFF728F9EA20FFF722F957
:1030F0000020FFF722F90020FFF71FF9C020FFF79B
:1031000019F91B20FFF719F9C120FFF713F9012066
:10311000FFF713F9C520FFF70DF93020FFF70DF980
:103120003020FFF70AF9C720FFF704F9B720FFF7AF
:1031300004F93620FFF7FEF84820FFF7FEF83A20A2
:10314000FFF7F8F85520FFF7F8F8B120FFF7F2F88D
:103150000020FFF7F2F81A20FFF7EFF8B620FFF78C
:10316000E9F80A2000E099E0FFF7E7F8A220FFF76E
:10317000E4F8F220FFF7DEF80020FFF7DEF8262063
:10318000FFF7D8F80120FFF7D8F8E020FFF7D2F8D2
:103190000F20FFF7D2F82A20FFF7CFF82820FFF7FB
:1031A000CCF80820FFF7C9F80E20FFF7C6F8082072
:1031B000FFF7C3F85420FFF7C0F8A920FFF7BDF8C8
:1031C0004320FFF7BAF80A20FFF7B7F80F20FFF700
:1031D000B4F80020FFF7B1F80020FFF7AEF80020A8
:1031E000FFF7ABF80020FFF7A8F8E120FFF7A2F8FF
:1031F0000020FFF7A2F81520FFF79FF81720FFF730
:103200009CF80720FFF799F81120FFF796F80620A1
:10321000FFF793F82B20FFF790F85620FFF78DF873
:103220003C20FFF78AF80520FFF787F81020FFF70A
:1032300084F80F20FFF781F83F20FFF77EF83F204A
:10324000FFF77BF80F20FFF778F82B20FFF772F8D5
:103250000020FFF772F80020FFF76FF80120FFF75A
:103260006CF83F20FFF769F82A20FFF763F8002089
:10327000FFF763F80020FFF760F80020FFF75DF824
:10328000EF20FFF75AF81120FFF754F87820FEF7E7
:1032900082FF2920FFF74EF803F021B93E488088CD
:1032A00046F60401884276D11120FFF743F8142036
:1032B000FEF771FFD020FFF73DF80720FFF73DF83C
:1032C0004220FFF73AF81D20FFF737F8D120FFF72B
:1032D00031F80020FFF731F81A20FFF72EF8092007
:1032E000FFF72BF8D220FFF725F80120FFF725F88C
:1032F0002220FFF722F8C020FFF71CF81020FFF76C
:103300001CF83B20FFF719F80020FFF716F8022001
:10331000FFF713F81120FFF710F8C520FFF70AF8A0
:103320000320FFF70AF8C820FFF704F80020FFF792
:1033300004F82520FFF701F82120FEF7FEFF052005
:10334000FEF7FBFF0020FEF7F8FF0A20FEF7F5FF6F
:103350006520FEF7F2FF2520FEF7EFFF7720FEF74E
:10336000ECFF5020FEF7E9FF0F20FEF7E6FF0020FC
:10337000FEF7E3FFF820FEF7DDFF0120FEF7DDFF9B
:10338000FE20FEF7D7FF0020FEF7D7FF0220FEF752
:10339000D4FF202002E034E0BA0A0020FEF7CAFF82
:1033A0003620FEF7C7FF0820FEF7C7FF3A20FEF7DA
:1033B000C1FF5520FEF7C1FF2B20FEF7BBFF002009
:1033C000FEF7BBFF0020FEF7B8FF0120FEF7B5FFB8
:1033D0003F20FEF7B2FF2A20FEF7ACFF0020FEF7E9
:1033E000ACFF0020FEF7A9FF0120FEF7A6FFDF20BB
:1033F000FEF7A3FF7820FEF7CEFE2920FEF79AFF06
:103400004AE7FE48808845F21031884240F07C87C8
:10341000ED20FEF78FFF0120FEF78FFFFE20FEF765
:103420008CFFEE20FEF786FFDE20FEF786FF2120D0
:10343000FEF783FFF120FEF77DFF0120FEF77DFF01
:10344000DF20FEF777FF1020FEF777FFC420FEF79E
:1034500071FF8F20FEF771FFC620FEF76BFF002083
:10346000FEF76BFFE220FEF768FFE220FEF765FF44
:10347000E220FEF762FFBF20FEF75CFFAA20FEF706
:103480005CFFB020FEF756FF0D20FEF756FF002030
:10349000FEF753FF0D20FEF750FF0020FEF74DFF13
:1034A0001120FEF74AFF0020FEF747FF1920FEF724
:1034B00044FF0020FEF741FF2120FEF73EFF0020E1
:1034C000FEF73BFF2D20FEF738FF0020FEF735FF0B
:1034D0003D20FEF732FF0020FEF72FFF5D20FEF7B4
:1034E0002CFF0020FEF729FF5D20FEF726FF0020BD
:1034F000FEF723FFB120FEF71DFF8020FEF71DFF22
:103500000020FEF71AFF8B20FEF717FF0020FEF7C2
:1035100014FF9620FEF711FF0020FEF70EFFB220E9
:10352000FEF708FF0020FEF708FF0020FEF705FF6A
:103530000220FEF702FF0020FEF7FFFE0320FEF749
:10354000FCFE0020FEF7F9FEB320FEF7F3FE00209C
:10355000FEF7F3FE0020FEF7F0FE0020FEF7EDFE82
:103560000020FEF7EAFE0020FEF7E7FE0020FEF74F
:10357000E4FE0020FEF7E1FE0020FEF7DEFE002064
:10358000FEF7DBFE0020FEF7D8FE0020FEF7D5FE9A
:103590000020FEF7D2FE0020FEF7CFFE0020FEF74F
:1035A000CCFE0020FEF7C9FE0020FEF7C6FE00207C
:1035B000FEF7C3FE0020FEF7C0FE0020FEF7BDFEB2
:1035C0000020FEF7BAFE0020FEF7B7FE0020FEF74F
:1035D000B4FE0020FEF7B1FE0020FEF7AEFEB420E0
:1035E000FEF7A8FE8B20FEF7A8FE0020FEF7A5FE42
:1035F0009620FEF7A2FE0020FEF79FFEA120FEF718
:103600009CFE0020FEF799FEB520FEF793FE0220F7
:10361000FEF793FE0020FEF790FE0320FEF78DFEDE
:103620000020FEF78AFE0420FEF787FE0020FEF74A
:1036300084FEB620FEF77EFE0020FEF77EFE002010
:10364000FEF77BFEB720FEF775FE0020FEF775FE45
:103650000020FEF772FE3F20FEF76FFE0020FEF70F
:103660006CFE5E20FEF769FE0020FEF766FE642019
:10367000FEF763FE0020FEF760FE8C20FEF75DFE85
:103680000020FEF75AFEAC20FEF757FE0020FEF7A2
:1036900054FEDC20FEF751FE0020FEF74EFE7020A7
:1036A000FEF74BFE0020FEF748FE9020FEF745FE99
:1036B0000020FEF742FEEB20FEF73FFE0020FEF763
:1036C0003CFEDC20FEF739FE0020FEF736FEB82077
:1036D000FEF730FE0020FEF730FE0020FEF72DFE44
:1036E0000020FEF72AFE0020FEF727FE0020FEF74E
:1036F00024FE0020FEF721FE0020FEF71EFE002023
:10370000FEF71BFEBA20FEF715FE2420FEF715FE7D
:103710000020FEF712FE0020FEF70FFE0020FEF74D
:103720000CFEC120FEF706FE2020FEF706FE00205C
:10373000FEF703FE5420FEF700FE0020FEF7FDFD1D
:10374000FF20FEF7FAFD0020FEF7F7FDC220FEF78E
:10375000F1FD0A20FEF7F1FD0020FEF7EEFD04204A
:10376000FEF7EBFD0020FEF7E8FDC320FEF7E2FDCB
:103770003C20FEF7E2FD0020FEF7DFFD3A20FEF7D9
:10378000DCFD0020FEF7D9FD3920FEF7D6FD002034
:10379000FEF7D3FD3720FEF7D0FD0020FEF7CDFD6C
:1037A0003C20FEF7CAFD0020FEF7C7FD3620FEF7DD
:1037B000C4FD0020FEF7C1FD3220FEF7BEFD002053
:1037C000FEF7BBFD2F20FEF7B8FD0020FEF7B5FD8C
:1037D0002C20FEF7B2FD0020FEF7AFFD2920FEF7FA
:1037E000ACFD0020FEF7A9FD2620FEF7A6FD002077
:1037F000FEF7A3FD2420FEF7A0FD01E0BA0A002099
:103800000020FEF79AFD2420FEF797FD0020FEF72A
:1038100094FD2320FEF791FD0020FEF78EFD3C2055
:10382000FEF78BFD0020FEF788FD3620FEF785FDB4
:103830000020FEF782FD3220FEF77FFD0020FEF71C
:103840007CFD2F20FEF779FD0020FEF776FD2C2071
:10385000FEF773FD0020FEF770FD2920FEF76DFDD9
:103860000020FEF76AFD2620FEF767FD0020FEF728
:1038700064FD2420FEF761FD0020FEF75EFD24209C
:10388000FEF75BFD0020FEF758FD2320FEF755FDF7
:103890000020FEF752FDC420FEF74CFD6220FEF72B
:1038A0004CFD0020FEF749FD0520FEF746FD0020F7
:1038B000FEF743FD8420FEF740FD0020FEF73DFDAE
:1038C000F020FEF73AFD0020FEF737FD1820FEF746
:1038D00034FD0020FEF731FDA420FEF72EFD002070
:1038E000FEF72BFD1820FEF728FD0020FEF725FD32
:1038F0005020FEF722FD0020FEF71FFD0C20FEF7F2
:103900001CFD0020FEF719FD1720FEF716FD002014
:10391000FEF713FD9520FEF710FD0020FEF70DFDCC
:10392000F320FEF70AFD0020FEF707FDE620FEF774
:1039300004FD0020FEF701FDC520FEF7FBFC322050
:10394000FEF7FBFC0020FEF7F8FC4420FEF7F5FC38
:103950000020FEF7F2FC6520FEF7EFFC0020FEF7EA
:10396000ECFC7620FEF7E9FC0020FEF7E6FC882060
:10397000FEF7E3FC0020FEF7E0FCC620FEF7DAFCD1
:103980002020FEF7DAFC0020FEF7D7FC1720FEF718
:10399000D4FC0020FEF7D1FC0120FEF7CEFC002075
:1039A000FEF7CBFCC720FEF7C5FC0020FEF7C5FCE8
:1039B0000020FEF7C2FC0020FEF7BFFC0020FEF74F
:1039C000BCFCC820FEF7B6FC0020FEF7B6FC0020C9
:1039D000FEF7B3FC0020FEF7B0FC0020FEF7ADFCC4
:1039E000C920FEF7A7FC0020FEF7A7FC0020FEF789
:1039F000A4FC0020FEF7A1FC0020FEF79EFC0020A6
:103A0000FEF79BFC0020FEF798FC0020FEF795FCDB
:103A10000020FEF792FC0020FEF78FFC0020FEF74E
:103A20008CFC0020FEF789FC0020FEF786FC0020BD
:103A3000FEF783FC0020FEF780FC0020FEF77DFCF3
:103A40000020FEF77AFCE020FEF774FC1620FEF75B
:103A500074FC0020FEF771FC1C20FEF76EFC0020B9
:103A6000FEF76BFC2120FEF768FC0020FEF765FCEA
:103A70003620FEF762FC0020FEF75FFC4620FEF7D2
:103A80005CFC0020FEF759FC5220FEF756FC00209B
:103A9000FEF753FC6420FEF750FC0020FEF74DFCBF
:103AA0007A20FEF74AFC0020FEF747FC8B20FEF749
:103AB00044FC0020FEF741FC9920FEF73EFC00206C
:103AC000FEF73BFCA820FEF738FC0020FEF735FC93
:103AD000B920FEF732FC0020FEF72FFCC420FEF7D1
:103AE0002CFC0020FEF729FCCA20FEF726FC002053
:103AF000FEF723FCD220FEF720FC0020FEF71DFC81
:103B0000D920FEF71AFC0020FEF717FCE020FEF794
:103B100014FC0020FEF711FCF320FEF70EFC002041
:103B2000FEF70BFCE120FEF705FC1620FEF705FC76
:103B30000020FEF702FC1C20FEF7FFFB0020FEF732
:103B4000FCFB2220FEF7F9FB0020FEF7F6FB3620F7
:103B5000FEF7F3FB0020FEF7F0FB4520FEF7EDFB40
:103B60000020FEF7EAFB5220FEF7E7FB0020FEF7FD
:103B7000E4FB6420FEF7E1FB0020FEF7DEFB7A2089
:103B8000FEF7DBFB0020FEF7D8FB8B20FEF7D5FB12
:103B90000020FEF7D2FB9920FEF7CFFB0020FEF7B6
:103BA000CCFBA820FEF7C9FB0020FEF7C6FBB9201E
:103BB000FEF7C3FB0020FEF7C0FBC420FEF7BDFBF1
:103BC0000020FEF7BAFBCA20FEF7B7FB0020FEF785
:103BD000B4FBD220FEF7B1FB0020FEF7AEFBD820ED
:103BE000FEF7ABFB0020FEF7A8FBE020FEF7A5FBED
:103BF0000020FEF7A2FBF320FEF79FFB0020FEF75C
:103C00009CFBE220FEF796FB0520FEF796FB0020CA
:103C1000FEF793FB0B20FEF790FB0020FEF78DFBD9
:103C20001B20FEF78AFB0020FEF787FB3420FEF7FF
:103C300084FB0020FEF781FB4420FEF77EFB002082
:103C4000FEF77BFB4F20FEF778FB0020FEF775FBAD
:103C50006120FEF772FB0020FEF76FFB7920FEF774
:103C60006CFB0020FEF769FB8820FEF766FB002056
:103C7000FEF763FB9720FEF760FB0020FEF75DFB7D
:103C8000A620FEF75AFB0020FEF757FBB720FEF7F1
:103C900054FB0020FEF751FBC220FEF74EFB002034
:103CA000FEF74BFBC720FEF748FB0020FEF745FB65
:103CB000D120FEF742FB0020FEF73FFBD620FEF7A7
:103CC0003CFB0020FEF739FBDD20FEF736FB002031
:103CD000FEF733FBF320FEF730FB0020FEF72DFB51
:103CE000E320FEF727FB0520FEF727FB0020FEF769
:103CF00024FB0A20FEF721FB0020FEF71EFB1C2000
:103D0000FEF71BFB0020FEF718FB3320FEF715FB28
:103D10000020FEF712FB4420FEF70FFB0020FEF709
:103D20000CFB5020FEF709FB0020FEF706FB62208B
:103D3000FEF703FB0020FEF700FB7820FEF7FDFAFC
:103D40000020FEF7FAFA8820FEF7F7FA0020FEF7C7
:103D5000F4FA9720FEF7F1FA0020FEF7EEFAA6201B
:103D6000FEF7EBFA0020FEF7E8FAB720FEF7E5FAD7
:103D70000020FEF7E2FAC220FEF7DFFA0020FEF78D
:103D8000DCFAC720FEF7D9FA0020FEF7D6FAD120D8
:103D9000FEF7D3FA0020FEF7D0FAD520FEF7CDFAD1
:103DA0000020FEF7CAFADD20FEF7C7FA0020FEF772
:103DB000C4FAF320FEF7C1FA0020FEF7BEFAE420B1
:103DC000FEF7B8FA0120FEF7B8FA0020FEF7B5FAC0
:103DD0000120FEF7B2FA0020FEF7AFFA0220FEF74C
:103DE000ACFA0020FEF7A9FA2A20FEF7A6FA002076
:103DF000FEF7A3FA3C20FEF7A0FA0020FEF79DFA9A
:103E00004B20FEF79AFA0020FEF797FA5D20FEF7A6
:103E100094FA0020FEF791FA7420FEF78EFA002043
:103E2000FEF78BFA8420FEF788FA0020FEF785FA69
:103E30009320FEF782FA0020FEF77FFAA220FEF719
:103E40007CFA0020FEF779FAB320FEF776FA00201C
:103E5000FEF773FABE20FEF770FA0020FEF76DFA47
:103E6000C420FEF76AFA0020FEF767FACD20FEF7BD
:103E700064FA0020FEF761FAD320FEF75EFA002014
:103E8000FEF75BFADD20FEF758FA0020FEF755FA40
:103E9000F320FEF752FA0020FEF74FFAE520FEF776
:103EA00049FA0020FEF749FA0020FEF746FA002002
:103EB000FEF743FA0020FEF740FA0220FEF73DFA33
:103EC0000020FEF73AFA2920FEF737FA0020FEF725
:103ED00034FA3C20FEF731FA0020FEF72EFA4B2090
:103EE000FEF72BFA0020FEF728FA5D20FEF725FAF0
:103EF0000020FEF722FA7420FEF71FFA0020FEF7DA
:103F00001CFA8420FEF719FA0020FEF716FA932017
:103F1000FEF713FA0020FEF710FAA220FEF70DFAC2
:103F20000020FEF70AFAB320FEF707FA0020FEF79A
:103F300004FABE20FEF701FA0020FEF7FEF9C420C5
:103F4000FEF7FBF90020FEF7F8F9CD20FEF7F5F9B2
:103F50000020FEF7F2F9D320FEF7EFF90020FEF77C
:103F6000ECF9DC20FEF7E9F90020FEF7E6F9F32092
:103F7000FEF7E3F90020FEF7E0F9E620FEF7DAF9B4
:103F80001120FEF7DAF90020FEF7D7F93420FEF70A
:103F9000D4F90020FEF7D1F95620FEF7CEF9002023
:103FA000FEF7CBF97620FEF7C8F90020FEF7C5F939
:103FB0007720FEF7C2F90020FEF7BFF96620FEF772
:103FC000BCF90020FEF7B9F98820FEF7B6F9002009
:103FD000FEF7B3F99920FEF7B0F90020FEF7ADF92E
:103FE000BB20FEF7AAF90020FEF7A7F99920FEF7FB
:103FF000A4F90020FEF7A1F96620FEF79EF9002043
:10400000FEF79BF95520FEF798F90020FEF795F989
:104010005520FEF792F90020FEF78FF94520FEF7B4
:104020008CF90020FEF789F94320FEF786F900207D
:10403000FEF783F94420FEF780F90020FEF77DF9B2
:10404000E720FEF777F93220FEF777F90020FEF738
:1040500074F95520FEF771F90020FEF76EF976200D
:10406000FEF76BF90020FEF768F96620FEF765F9A8
:104070000020FEF762F96720FEF75FF90020FEF7E7
:104080005CF96720FEF759F90020FEF756F9872002
:10409000FEF753F90020FEF750F99920FEF74DF98D
:1040A0000020FEF74AF9BB20FEF747F90020FEF793
:1040B00044F99920FEF741F90020FEF73EF97720F8
:1040C000FEF73BF90020FEF738F94420FEF735F9FA
:1040D0000020FEF732F95620FEF72FF90020FEF7F8
:1040E0002CF92320FEF729F90020FEF726F93320CA
:1040F000FEF723F90020FEF720F94520FEF71DF911
:104100000020FEF71AF9E820FEF714F90020FEF768
:1041100014F90020FEF711F99920FEF70EF900209E
:10412000FEF70BF98720FEF708F90020FEF705F9E6
:104130008820FEF702F90020FEF7FFF87720FEF74F
:10414000FCF80020FEF7F9F86620FEF7F6F80020EC
:10415000FEF7F3F88820FEF7F0F80020FEF7EDF800
:10416000AA20FEF7EAF80020FEF7E7F8BB20FEF7EA
:10417000E4F80020FEF7E1F89920FEF7DEF80020D1
:10418000FEF7DBF86620FEF7D8F80020FEF7D5F83A
:104190005520FEF7D2F80020FEF7CFF85520FEF7A5
:1041A000CCF80020FEF7C9F84420FEF7C6F800203E
:1041B000FEF7C3F84420FEF7C0F80020FEF7BDF874
:1041C0005520FEF7BAF80020FEF7B7F8E920FEF711
:1041D000B1F8AA20FEF7B1F80020FEF7AEF80020F3
:1041E000FEF7ABF80020FEF7A8F80020FEF7A2F8D3
:1041F000AA20FEF7A2F8CF20FEF79CF80020FEF7D9
:104200009CF80020FEF799F80020FEF796F80020B1
:10421000FEF793F80020FEF790F80020FEF78DF8E7
:104220000020FEF78AF80020FEF787F80020FEF74E
:1042300084F80020FEF781F80020FEF77EF80020C9
:10424000FEF77BF80020FEF778F80020FEF775F8FF
:104250000020FEF772F80020FEF76FF80020FEF74E
:104260006CF8F020FEF766F80020FEF766F85020A4
:10427000FEF763F80020FEF760F80020FEF75DF817
:104280000020FEF75AF8F320FEF754F80020FEF75E
:1042900054F8F920FEF74EF80620FEF74EF81020ED
:1042A000FEF74BF82920FEF748F80020FEF745F806
:1042B0003A20FEF73FF85520FEF73FF81120FEF7B1
:1042C00039F86420FDF767FF2920FEF733F8352021
:1042D000FEF730F80020FEF730F85120FEF72AF8FC
:1042E000FF20FEF72AF85320FEF724F82C20FEF7D3
:1042F00024F85520FEF71EF88220FEF71EF82C2029
:10430000FEF718F802F0EBB8FE48808845F210512D
:1043100088427DD155214FF47040FEF716F8AA214E
:104320004FF20100FEF711F852214FF20200FEF7A2
:104330000CF808214FF20300FEF707F801214FF2B5
:104340000400FEF702F80D214FF43040FDF7FDFFA9
:104350000D214BF20100FDF7F8FF0D214BF2020099
:10436000FDF7F3FF34214FF43640FDF7EEFF342123
:104370004BF20160FDF7E9FF34214BF20260FDF7DB
:10438000E4FF0D214FF43140FDF7DFFF0D214BF22B
:104390000110FDF7DAFF0D214BF20210FDF7D5FFFA
:1043A00034214FF43740FDF7D0FF34214BF2017038
:1043B000FDF7CBFF34214BF20270FDF7C6FF002161
:1043C0004FF43240FDF7C1FF00214BF20120FDF711
:1043D000BCFF00214BF20220FDF7B7FF24214FF470
:1043E0003840FDF7B2FF24214BF60100FDF7ADFF89
:1043F00024214BF60200FDF7A8FF01214FF43F40B6
:10440000FDF7A3FF0F214FF43340FDF79EFF00E0BF
:10441000FDE30F214BF20130FDF797FF0F214BF227
:104420000230FDF792FF34214FF43940FDF78DFF44
:1044300034214BF60110FDF788FF34214BF60210B2
:10444000FDF783FF08214FF43540FDF77EFF08217B
:104450004BF20150FDF779FF08214BF20250FDF7B6
:1044600074FF03214FF44240FDF76FFF24214FF406
:104470003A40FDF76AFF24214BF60120FDF765FF66
:1044800024214BF60220FDF760FF00214FF43C4051
:10449000FDF75BFF78214BF60140FDF756FF002149
:1044A0004BF60240FDF751FF00214FF43D40FDF770
:1044B0004CFF78214BF60150FDF747FF00214BF6EA
:1044C0000250FDF742FF00214FF43E40FDF73DFF53
:1044D00064214BF60160FDF738FF00214FF4514095
:1044E000FDF733FF33214DF20110FDF72EFF0021C0
:1044F0004DF20210FDF729FF34214DF20310FDF7B4
:1045000024FF00214DF20410FDF71FFF3A214DF268
:104510000510FDF71AFF00214DF20610FDF715FFFB
:104520004A214DF20710FDF710FF00214DF208104F
:10453000FDF70BFF5C214DF20910FDF706FF00218E
:104540004DF20A10FDF701FF81214DF20B10FDF72E
:10455000FCFE00214DF20C10FDF7F7FEA6214DF2F6
:104560000D10FDF7F2FE00214DF20E10FDF7EDFEED
:10457000E5214DF20F10FDF7E8FE01214DF210107C
:10458000FDF7E3FE13214DF21110FDF7DEFE0121D0
:104590004DF21210FDF7D9FE54214DF21310FDF724
:1045A000D4FE01214DF21410FDF7CFFE82214DF211
:1045B0001510FDF7CAFE01214DF21610FDF7C5FEDC
:1045C000CA214DF21710FDF7C0FE02214DF218105E
:1045D000FDF7BBFE00214DF21910FDF7B6FE0221DA
:1045E0004DF21A10FDF7B1FE01214DF21B10FDF73F
:1045F000ACFE02214DF21C10FDF7A7FE34214DF256
:104600001D10FDF7A2FE02214DF21E10FDF79DFECA
:1046100067214DF21F10FDF798FE02214DF2201088
:10462000FDF793FE84214DF22110FDF78EFE02214D
:104630004DF22210FDF789FEA4214DF22310FDF763
:1046400084FE02214DF22410FDF77FFEB7214DF2CA
:104650002510FDF77AFE02214DF22610FDF775FEBA
:10466000CF214DF22710FDF770FE02214DF22810E8
:10467000FDF76BFEDE214DF22910FDF766FE0221EB
:104680004DF22A10FDF761FEF2214DF22B10FDF7DD
:104690005CFE02214DF22C10FDF757FEFE214DF27B
:1046A0002D10FDF752FE03214DF22E10FDF74DFEA9
:1046B00010214DF22F10FDF748FE03214DF230106E
:1046C000FDF743FE33214DF23110FDF73EFE03218D
:1046D0004DF23210FDF739FE6D214DF23310FDF72A
:1046E00034FE00214FF45240FDF72FFE33214DF2EE
:1046F0000120FDF72AFE00214DF20220FDF725FEE4
:10470000342101E0BA0A00204DF20320FDF71DFE1E
:1047100000214DF20420FDF718FE3A214DF205204C
:10472000FDF713FE00214DF20620FDF70EFE4A2193
:104730004DF20720FDF709FE00214DF20820FDF79C
:1047400004FE5C214DF20920FDF7FFFD00214DF232
:104750000A20FDF7FAFD81214DF20B20FDF7F5FD52
:1047600000214DF20C20FDF7F0FDA6214DF20D20A9
:10477000FDF7EBFD00214DF20E20FDF7E6FDE521F2
:104780004DF20F20FDF7E1FD01214DF21020FDF764
:10479000DCFD13214DF21120FDF7D7FD01214DF273
:1047A0001220FDF7D2FD54214DF21320FDF7CDFD6F
:1047B00001214DF21420FDF7C8FD82214DF2152094
:1047C000FDF7C3FD01214DF21620FDF7BEFDCA2104
:1047D0004DF21720FDF7B9FD02214DF21820FDF72B
:1047E000B4FD00214DF21920FDF7AFFD02214DF27D
:1047F0001A20FDF7AAFD01214DF21B20FDF7A5FDB2
:1048000002214DF21C20FDF7A0FD34214DF21D20A8
:10481000FDF79BFD02214DF21E20FDF796FD67215D
:104820004DF21F20FDF791FD02214DF22020FDF7F2
:104830008CFD84214DF22120FDF787FD02214DF2F0
:104840002220FDF782FDA4214DF22320FDF77DFDFE
:1048500002214DF22420FDF778FDB7214DF22520ED
:10486000FDF773FD02214DF22620FDF76EFDCF21ED
:104870004DF22720FDF769FD02214DF22820FDF7BA
:1048800064FDDE214DF22920FDF75FFD02214DF28E
:104890002A20FDF75AFDF2214DF22B20FDF755FDA0
:1048A00002214DF22C20FDF750FDFE214DF22D206E
:1048B000FDF74BFD03214DF22E20FDF746FD1021A3
:1048C0004DF22F20FDF741FD03214DF23020FDF781
:1048D0003CFD33214DF23120FDF737FD03214DF230
:1048E0003220FDF732FD6D214DF23320FDF72DFD15
:1048F00000214FF45340FDF728FD33214DF20130E4
:10490000FDF723FD00214DF20230FDF71EFD34219D
:104910004DF20330FDF719FD00214DF20430FDF793
:1049200014FD3A214DF20530FDF70FFD00214DF247
:104930000630FDF70AFD4A214DF20730FDF705FD6F
:1049400000214DF20830FDF700FD5C214DF20930E9
:10495000FDF7FBFC00214DF20A30FDF7F6FC81214A
:104960004DF20B30FDF7F1FC00214DF20C30FDF75C
:10497000ECFCA6214DF20D30FDF7E7FC00214DF2D5
:104980000E30FDF7E2FCE5214DF20F30FDF7DDFCC6
:1049900001214DF21030FDF7D8FC13214DF21130FA
:1049A000FDF7D3FC01214DF21230FDF7CEFC54216E
:1049B0004DF21330FDF7C9FC01214DF21430FDF723
:1049C000C4FC82214DF21530FDF7BFFC01214DF2F0
:1049D0001630FDF7BAFCCA214DF21730FDF7B5FCD1
:1049E00002214DF21830FDF7B0FC00214DF21930D4
:1049F000FDF7ABFC02214DF21A30FDF7A6FC0121B8
:104A00004DF21B30FDF7A1FC02214DF21C30FDF7E9
:104A10009CFC34214DF21D30FDF797FC02214DF234
:104A20001E30FDF792FC67214DF21F30FDF78DFC23
:104A300002214DF22030FDF788FC84214DF2213017
:104A4000FDF783FC02214DF22230FDF77EFCA4210C
:104A50004DF22330FDF779FC02214DF22430FDF7B1
:104A600074FCB7214DF22530FDF76FFC02214DF2A9
:104A70002630FDF76AFCCF214DF22730FDF765FCAB
:104A800002214DF22830FDF760FCDE214DF2293085
:104A9000FDF75BFC02214DF22A30FDF756FCF221B6
:104AA0004DF22B30FDF751FC02214DF22C30FDF779
:104AB0004CFCFE214DF22D30FDF747FC03214DF259
:104AC0002E30FDF742FC10214DF22F30FDF73DFC5A
:104AD00003214DF23030FDF738FC33214DF23130F7
:104AE000FDF733FC03214DF23230FDF72EFC6D2132
:104AF0004DF23330FDF729FC00214FF45440FDF70F
:104B000024FC33214DF20140FDF71FFC00214DF242
:104B10000240FDF71AFC34214DF20340FDF715FC6D
:104B200000214DF20440FDF710FC3A214DF2054002
:104B3000FDF70BFC00214DF20640FDF706FC4A2173
:104B40004DF20740FDF701FC00214DF20840FDF752
:104B5000FCFB5C214DF20940FDF7F7FB00214DF213
:104B60000A40FDF7F2FB81214DF20B40FDF7EDFB12
:104B700000214DF20C40FDF7E8FBA6214DF20D405F
:104B8000FDF7E3FB00214DF20E40FDF7DEFBE521D2
:104B90004DF20F40FDF7D9FB01214DF21040FDF71A
:104BA000D4FB13214DF21140FDF7CFFB01214DF253
:104BB0001240FDF7CAFB54214DF21340FDF7C5FB2F
:104BC00001214DF21440FDF7C0FB82214DF215404A
:104BD000FDF7BBFB01214DF21640FDF7B6FBCA21E4
:104BE0004DF21740FDF7B1FB02214DF21840FDF7E1
:104BF000ACFB00214DF21940FDF7A7FB02214DF25D
:104C00001A40FDF7A2FB01214DF21B4000E006E334
:104C1000FDF79BFB02214DF21C40FDF796FB342172
:104C20004DF21D40FDF791FB02214DF21E40FDF7B4
:104C30008CFB67214DF21F40FDF787FB02214DF2EF
:104C40002040FDF782FB84214DF22140FDF77DFBE2
:104C500002214DF22240FDF778FBA4214DF22340C2
:104C6000FDF773FB02214DF22440FDF76EFBB721E7
:104C70004DF22540FDF769FB02214DF22640FDF77C
:104C800064FBCF214DF22740FDF75FFB02214DF27F
:104C90002840FDF75AFBDE214DF22940FDF755FB78
:104CA00002214DF22A40FDF750FBF2214DF22B403C
:104CB000FDF74BFB02214DF22C40FDF746FBFE2198
:104CC0004DF22D40FDF741FB03214DF22E40FDF743
:104CD0003CFB10214DF22F40FDF737FB03214DF235
:104CE0003040FDF732FB33214DF23140FDF72DFB13
:104CF00003214DF23240FDF728FB6D214DF2334088
:104D0000FDF723FB00214FF45540FDF71EFB332137
:104D10004DF20150FDF719FB00214DF20250FDF755
:104D200014FB34214DF20350FDF70FFB00214DF22F
:104D30000450FDF70AFB3A214DF20550FDF705FB43
:104D400000214DF20650FDF700FB4A214DF20750BD
:104D5000FDF7FBFA00214DF20850FDF7F6FA5C2151
:104D60004DF20950FDF7F1FA00214DF20A50FDF71E
:104D7000ECFA81214DF20B50FDF7E7FA00214DF2DC
:104D80000C50FDF7E2FAA6214DF20D50FDF7DDFAC9
:104D900000214DF20E50FDF7D8FAE5214DF20F50EB
:104DA000FDF7D3FA01214DF21050FDF7CEFA132191
:104DB0004DF21150FDF7C9FA01214DF21250FDF7E5
:104DC000C4FA54214DF21350FDF7BFFA01214DF200
:104DD0001450FDF7BAFA82214DF21550FDF7B5FADD
:104DE00001214DF21650FDF7B0FACA214DF21750CD
:104DF000FDF7ABFA02214DF21850FDF7A6FA00219B
:104E00004DF21950FDF7A1FA02214DF21A50FDF7AB
:104E10009CFA01214DF21B50FDF797FA02214DF249
:104E20001C50FDF792FA34214DF21D50FDF78DFA1A
:104E300002214DF21E50FDF788FA67214DF21F50F6
:104E4000FDF783FA02214DF22050FDF77EFA84210E
:104E50004DF22150FDF779FA02214DF22250FDF773
:104E600074FAA4214DF22350FDF76FFA02214DF29E
:104E70002450FDF76AFAB7214DF22550FDF765FA87
:104E800002214DF22650FDF760FACF214DF2275056
:104E9000FDF75BFA02214DF22850FDF756FADE21AC
:104EA0004DF22950FDF751FA02214DF22A50FDF73B
:104EB0004CFAF2214DF22B50FDF747FA02214DF248
:104EC0002C50FDF742FAFE214DF22D50FDF73DFA30
:104ED00003214DF22E50FDF738FA10214DF22F50DC
:104EE000FDF733FA03214DF23050FDF72EFA33214E
:104EF0004DF23150FDF729FA03214DF23250FDF702
:104F000024FA6D214DF23350FDF71FFA00214FF4C2
:104F10005640FDF71AFA33214DF20160FDF715FAFC
:104F200000214DF20260FDF710FA34214DF20360CA
:104F3000FDF70BFA00214DF20460FDF706FA3A2165
:104F40004DF20560FDF701FA00214DF20660FDF714
:104F5000FCF94A214DF20760FDF7F7F900214DF207
:104F60000860FDF7F2F95C214DF20960FDF7EDF9FB
:104F700000214DF20A60FDF7E8F981214DF20B6046
:104F8000FDF7E3F900214DF20C60FDF7DEF9A621F3
:104F90004DF20D60FDF7D9F900214DF20E60FDF7DD
:104FA000D4F9E5214DF20F60FDF7CFF901214DF263
:104FB0001060FDF7CAF913214DF21160FDF7C5F934
:104FC00001214DF21260FDF7C0F954214DF213603A
:104FD000FDF7BBF901214DF21460FDF7B6F982210E
:104FE0004DF21560FDF7B1F901214DF21660FDF7A4
:104FF000ACF9CA214DF21760FDF7A7F902214DF275
:105000001860FDF7A2F900214DF21960FDF79DF936
:1050100002214DF21A60FDF798F901214DF21B6053
:10502000FDF793F902214DF21C60FDF78EF9342152
:105030004DF21D60FDF789F902214DF21E60FDF76A
:1050400084F967214DF21F60FDF77FF902214DF2CF
:105050002060FDF77AF984214DF22160FDF775F9A2
:1050600002214DF22260FDF770F9A4214DF2236078
:10507000FDF76BF902214DF22460FDF766F9B721C7
:105080004DF22560FDF761F902214DF22660FDF732
:105090005CF9CF214DF22760FDF757F902214DF25F
:1050A0002860FDF752F9DE214DF22960FDF74DF938
:1050B00002214DF22A60FDF748F9F2214DF22B60F2
:1050C000FDF743F902214DF22C60FDF73EF9FE2178
:1050D0004DF22D60FDF739F903214DF22E60FDF7F9
:1050E00034F910214DF22F60FDF72FF903214DF215
:1050F0003060FDF72AF933214DF23160FDF725F9D3
:1051000003214DF23260FDF720F96D214DF233603D
:10511000FDF71BF955214FF47040FDF716F9AA2150
:105120004FF20100FDF711F952214FF20200FDF795
:105130000CF908214FF20300FDF707F900214FF2A7
:105140000400FDF702F9CC214FF43140FDF7FDF8E2
:1051500000214BF20110FDF7F8F805214FF436401D
:10516000FDF7F3F870214FF43740FDF7EEF87021AA
:105170004BF20170FDF7E9F801214FF43840FDF7DB
:10518000E4F803214BF60100FDF7DFF803214BF6AD
:105190000200FDF7DAF803214BF60300FDF7D5F81E
:1051A00002214FF43C40FDF7D0F800214BF60140BE
:1051B000FDF7CBF800214BF60240FDF7C6F8D021F1
:1051C0004FF44940FDF7C1F802214CF60110FDF7FC
:1051D000BCF850214CF60210FDF7B7F850214CF600
:1051E0000310FDF7B2F850214CF60410FDF7ADF8AE
:1051F00000214FF45450FDF7A8F855214FF46850A2
:10520000FDF7A3F84FF48850FDF794F87820FCF7E9
:1052100097FF4FF42450FDF78DF801F060B9FE4878
:10522000808849F2253188427ED147F6F001E52099
:10523000FDF78BF84FF480710120FDF786F84FF4ED
:10524000E0610220FDF781F841F230010320FDF713
:105250007CF800210420FDF778F840F202210820B4
:10526000FDF773F800210920FDF76FF800210A20EF
:10527000FDF76BF800210C20FDF767F800210D20E9
:10528000FDF763F800210F20FDF75FF800211020E3
:10529000FDF75BF807211120FDF757F800211220D8
:1052A000FDF753F800211320FDF74FF800210720E8
:1052B000FDF74BF841F290611020FDF746F840F2FF
:1052C00027211120FDF741F89D211220FDF73DF81F
:1052D0004FF4C8511320FDF738F825212920FDF798
:1052E00034F80D212B20FDF730F807213020FDF791
:1052F0002CF840F203313120FDF727F8032132204A
:10530000FDF723F840F206213520FDF71EF80821AD
:105310003620FDF71AF840F206413720FDF715F860
:105320004FF44171382000E057E0FDF70EF80721F7
:105330003920FDF70AF840F202613C20FDF705F83C
:1053400008213D20FDF701F800215020FCF7FDFF6A
:10535000EF215120FCF7F9FF00215220FCF7F5FF67
:1053600040F23F115320FCF7F0FF4FF4274160203B
:10537000FCF7EBFF01216120FCF7E7FF00216A2029
:10538000FCF7E3FF00218020FCF7DFFF00218120F4
:10539000FCF7DBFF00218220FCF7D7FF00218320F0
:1053A000FCF7D3FF00218420FCF7CFFF00218520EC
:1053B000FCF7CBFF10219020FCF7C7FF4FF4C06132
:1053C0009220FCF7C2FF40F233110720FCF7BDFF2B
:1053D00022210020FCF7B9FF1FE78F48808849F29F
:1053E000283188427ED141F28F01EC20FCF7ADFFDD
:1053F00041F23421EF20FCF7A8FF4FF48071012027
:10540000FCF7A3FF4FF4E0610220FCF79EFF41F29E
:1054100030010320FCF799FF00210420FCF795FFE1
:1054200040F202210820FCF790FF00210920FCF740
:105430008CFF00210A20FCF788FF01210C20FCF7DB
:1054400084FF00210D20FCF780FF00210F20FCF7D6
:105450007CFF00211020FCF778FF07211120FCF7CA
:1054600074FF00211220FCF770FF00211320FCF7CD
:105470006CFF01210720FCF768FF3220FCF78BFE50
:1054800041F290411020FCF760FF40F227211120EB
:10549000FCF75BFF3220FCF77EFE8A211220FCF72E
:1054A00054FF3220FCF777FE4FF4D0511320FCF765
:1054B0004CFF06212920FCF748FF0D212B20FCF78B
:1054C00044FF3220FCF767FE00212020FCF73DFF5F
:1054D00000212120FCF739FF3220FCF75CFE00217F
:1054E000302000E074E0FCF730FF40F2046131202E
:1054F000FCF72BFF40F205313220FCF726FF00219C
:105500003520FCF722FF40F609413620FCF71DFF4D
:105510004FF401713720FCF718FF40F201313820B9
:10552000FCF713FF40F207713920FCF70EFF002152
:105530003C20FCF70AFF40F60A213D20FCF705FF5E
:105540003220FCF728FE00215020FCF7FEFEEF2160
:105550005120FCF7FAFE00215220FCF7F6FE40F243
:105560003F115320FCF7F1FE4FF427416020FCF778
:10557000ECFE01216120FCF7E8FE00216A20FCF727
:10558000E4FE00218020FCF7E0FE00218120FCF7F2
:10559000DCFE00218220FCF7D8FE00218320FCF7EE
:1055A000D4FE00218420FCF7D0FE00218520FCF7EA
:1055B000CCFE10219020FCF7C8FE4FF4C061922071
:1055C000FCF7C3FE40F233110720FCF7BEFE24E6D1
:1055D0001148808849F2203188427DD10021084657
:1055E000FCF7B3FE4FF480710120FCF7AEFE4FF4E0
:1055F000E0610220FCF7A9FE41F230010320FCF734
:10560000A4FE00210420FCF7A0FE40F202210820A5
:10561000FCF79BFE002101E0BA0A00200920FCF7FC
:1056200094FE00210A20FCF790FE01210C20FCF7DB
:105630008CFE00210D20FCF788FE00210F20FCF7D6
:1056400084FE3220FCF7A7FD40F201110720FCF791
:105650007CFE3220FCF79FFD4FF486511020FCF7B2
:1056600074FE07211120FCF770FE4FF488711220A0
:10567000FCF76BFE4FF430611320FCF766FE00214F
:105680002920FCF762FE44F210012B20FCF75DFE9E
:1056900000215020FCF759FEEF215120FCF755FE68
:1056A00000215220FCF751FE40F23F115320FCF73D
:1056B0004CFE4FF41C516020FCF747FE0121612095
:1056C000FCF743FE00216A20FCF73FFE002180200A
:1056D000FCF73BFE002100E031E08120FCF735FEC5
:1056E00000218220FCF731FE00218320FCF72DFEF3
:1056F00000218420FCF729FE00218520FCF725FEEF
:1057000010219020FCF721FE00219220FCF71DFEC5
:1057100001219320FCF719FE4FF488719520FCF7C6
:1057200014FE00219720FCF710FE00219820FCF7C2
:105730000CFE40F273110720FCF707FE6DE5FE48F2
:10574000808849F2313188427DD141F21401E7204D
:10575000FCF7FBFD4FF480710120FCF7F6FD4FF4E0
:1057600000710220FCF7F1FD41F238010320FCF743
:10577000ECFD40F202210820FCF7E7FD00210920A2
:10578000FCF7E3FD00210A20FCF7DFFD00210C20DF
:10579000FCF7DBFD00210D20FCF7D7FD00210F20D9
:1057A000FCF7D3FD00211020FCF7CFFD07211120CD
:1057B000FCF7CBFD00211220FCF7C7FD00211320D0
:1057C000FCF7C3FDC820FCF7E6FC41F29061102015
:1057D000FCF7BBFD40F227211120FCF7B6FD32207B
:1057E000FCF7D9FC0C211220FCF7AFFD3220FCF7AE
:1057F000D2FC4FF400611320FCF7A7FD11212920F2
:10580000FCF7A3FD0B212B20FCF79FFD3220FCF7BA
:10581000C2FC00212020FCF798FD40F23F1121201E
:10582000FCF793FD00213020FCF78FFD4FF48371CE
:105830003120FCF78AFD00213220FCF786FD4FF471
:105840000171352000E064E0FCF77FFD41F20A6160
:105850003620FCF77AFD40F207713720FCF775FD22
:105860004FF483713820FCF770FD40F20771392046
:10587000FCF76BFD40F202413C20FCF766FD40F670
:105880000F413D20FCF761FD00215020FCF75DFD3C
:10589000EF215120FCF759FD00215220FCF755FD66
:1058A00040F23F115320FCF750FD4FF41C51602093
:1058B000FCF74BFD01216120FCF747FD00216A2028
:1058C000FCF743FD00218020FCF73FFD00218120F3
:1058D000FCF73BFD00218220FCF737FD00218320EF
:1058E000FCF733FD00218420FCF72FFD00218520EB
:1058F000FCF72BFD10219020FCF727FD4FF4C06131
:105900009220FCF722FD40F233110720FCF71DFD29
:1059100083E48948808845F2084188427ED14FF46B
:1059200080710120FCF711FD4FF4E0610220FCF7CB
:105930000CFD41F230010320FCF707FD002104209B
:10594000FCF703FD40F207210820FCF7FEFC0021D4
:105950000920FCF7FAFC00210A20FCF7F6FC0021E4
:105960000C20FCF7F2FC00210D20FCF7EEFC0021DE
:105970000F20FCF7EAFC1420FCF70DFC41F2B061AB
:105980001020FCF7E2FC01211120FCF7DEFC0121D4
:105990001720FCF7DAFC4FF49C711220FCF7D5FCC1
:1059A0004FF400611320FCF7D0FC09212920FCF7FB
:1059B000CCFC09212A20FCF7C8FC0021A420FCF71C
:1059C000C4FC00215020FCF7C0FCEF215120FCF763
:1059D000BCFC00215220FCF7B8FC40F23F115320E0
:1059E000FCF7B3FC4FF41C516020FCF7AEFC012126
:1059F0006120FCF7AAFC00216A20FCF7A6FC00212C
:105A00008020FCF7A2FC00218120FCF79EFC0021F5
:105A10008220FCF79AFC0021832000E023E0FCF7C1
:105A200094FC00218420FCF790FC00218520FCF7E9
:105A30008CFC13219020FCF788FC00219220FCF7BD
:105A400084FC03219320FCF780FC4FF4887195209F
:105A5000FCF77BFC40F273110720FCF776FC322048
:105A6000FCF799FBB8E43448808841F2055188423C
:105A70007ED100210720FCF768FC3220FCF78BFB6D
:105A80004FF48E711220FCF760FC0121A420FCF77A
:105A90005CFC0F210820FCF758FC08210A20FCF7C9
:105AA00054FC08210D20FCF750FC40F20771302017
:105AB000FCF74BFC07213120FCF747FC40F2036167
:105AC0003220FCF742FC4FF4E0613320FCF73DFC50
:105AD00040F202213420FCF738FC02213520FCF78B
